:1000000000000420750300005D0300005F03000092
:1000100061030000630300006503000000000000AE
:100020000000000000000000000000006703000066
:1000300069030000000000006B0300006D03000076
:100040003D1F00006F0300007D1900006F030000DA
:100050006F0300006F0300006F0300006F030000D8
:10006000012400006F0300006F0300003D22000028
:100070006F0300006F0300006F0300006F030000B8
:100080006F0300004D0D00006F0300006F030000C0
:100090006F0300006F0300006F0300006F03000098
:1000A0006F0300006F0300006F0300006F03000088
:1000B0006F0300006F03000000000000000000005C
:1000C0006F0300006F0300006F0300006F03000068
:1000D0006F0300006F0300006F0300006F03000058
:1000E0006F0300006F0300006F03000000000000BA
:1000F000000000006F030000000000006F0300001C
:1001000000000000000000000000000000000000EF
:1001100000000000000000000000000000000000DF
:1001200000000000000000000000000000000000CF
:1001300000000000000000000000000000000000BF
:1001400000000000000000000000000000000000AF
:10015000000000000000000000000000000000009F
:10016000000000000000000000000000000000008F
:10017000000000000000000000000000000000007F
:10018000000000000000000000000000000000006F
:10019000000000000000000000000000000000005F
:1001A000000000000000000000000000000000004F
:1001B000000000000000000000000000000000003F
:1001C000000000000000000000000000000000002F
:1001D000000000000000000000000000000000001F
:1001E000000000000000000000000000000000000F
:1001F00000000000000000000000000000000000FF
:10020000354936480A1A02D0072291438D463449AF
:1002100034480A1A06D00722914381F30988022242
:1002200082F3148830483149314A00F044F83148AB
:100230003149324A00F03FF831483249324A00F041
:100240003AF832483249334A00F035F832483349F7
:10025000334A00F030F833483349344A00F02BF881
:1002600033483449344A00F026F8344834490022EF
:1002700000F02CF833483449002200F027F83348C6
:100280003349091A082902DB002202604160314A21
:1002900090471F481F49884205D00268043003B4C4
:1002A000904703BCF7E700208646EC46002000217B
:1002B000294A9047FEE7884207D0521A05D00378B2
:1002C00001300B700131013AF9D17047884202D0F8
:1002D00002700130FAE770470000042000E00320BC
:1002E00000000420000004202C2F0000000000204B
:1002F00044000020D0030000D0030000842A000046
:100300002C2F000000000020000000202C2B0000FB
:100310002C2B00002C2B00002C2B00002C2B000081
:100320002C2B00002C2B00002C2B00002C2F00006D
:10033000702F0000440000204400002044000020F2
:10034000340A0020340A0020340A0020340A002035
:10035000342A00209D03000011250000FEE7FEE77F
:10036000FEE7FEE7FEE7FEE7FEE7FEE7FEE7FEE765
:1003700000F002B8FFF7FCBF0F484FF007018843B9
:1003800085460E4880470E48016841F470010160BF
:10039000BFF34F8FBFF36F8FFFF732BF09480A4992
:1003A0000A4A884207D0521A05D0037801300B70F0
:1003B0000131013AF9D1704700000420C92600003C
:1003C00088ED00E02C2B0000000000200000002041
:1003D0007047000007B5044B0093044A402300F027
:1003E00030F803B05DF804FBF10300004500002085
:1003F0002DE9F84388461446B2B10F4B0F4E032542
:10040000002743F00109224608EB0701002002F013
:1004100007F90744241A48B933782BB14FF47A40CE
:10042000C847013D02D13570BDE8F8830123337020
:10043000002CE8D1F8E700BF302B0000440000207A
:100440007047F0B595B01D46164608460C4601F0BB
:10045000F3FB1A9B0D93CDE9086500252B46082276
:1004600005A920460A958DF82C500C9501F000FC4A
:10047000079B0293069B03939DF814308DF811504F
:1004800003F00302012A1DD1BDF81420059DC3F31A
:10049000C203C2F383168DF81030B20008230EA9F0
:1004A000204601F0E5FBC5F3952508AB00933246E5
:1004B00002AB0EA9284600F0CFFA204601F0C0FB9F
:1004C00015B0F0BD022AF8D1BDF81650C3F3C2032F
:1004D000C5F389158DF810300827082D2E4628BF42
:1004E00008263B4632460EA9204601F0C1FBAD1B53
:1004F00008AB02AA31460EA8374400F011FB002DCC
:10050000EBD1DAE7037813F0040216D003F003030B
:10051000012B03D0022B09D0012070470A68008804
:100520000232C0F3831002440A60F5E70B68428888
:10053000023303EB92130B60EEE7104670470000A6
:100540002DE9F04FDFF810A10F4685B00446861C58
:100550000020154600F0F6FBDAF804203A60DAF8DD
:10056000083003F580739B1A0AF21C470AF5836969
:100570000AF21448B34219D30020002D68D004F0C9
:100580000F039B0143F0050363F30F00DAF8043017
:10059000DAB2033233444AF822000020CAF80430A9
:1005A00000F0D2FB012005B0BDE8F08F01213846F4
:1005B00000F0F9FB484600F00EFC404600F00BFC52
:1005C000DAF808000090C0B203300AEB80006946F8
:1005D000FFF798FF009B30BBDAB20AEB8202D168CA
:1005E00001919A1C0133DBB20AEB83030092D3F82A
:1005F0000CB001F00303012B22D0022B15D083464F
:10060000404600F0EBFB10B1009BCAF80830594699
:10061000384600F0C8FBDAF80830DAF8042003F5B1
:1006200080739B1AA6E7D8B2CEE7BDF80630C3F3B5
:10063000891303334FEA1B4B02EB93030093DFE76D
:10064000BDF80430C3F383134FEA1B4B1344F5E7A3
:10065000A40544F0060099E75801002030B50A4C83
:1006600071B10A4A0A49121BD20800239A4201D1E9
:10067000002030BD31F82350854202D00133F5E728
:10068000034654F83300F4E7AC2A0000F42A0000D3
:1006900000000020094B013903EBC000032909D8F1
:1006A000DFE801F00A020406042070470079704771
:1006B000407970470020704702207047AC2A000044
:1006C00070470000034BD3E90130C31A5842584128
:1006D000704700BF580100202DE9FF41FFF7F2FFEE
:1006E0000546002840F0E980754CC4F81804BFF3B3
:1006F0004F8FA3680093DBB2033304EB830069469A
:10070000FFF700FF009B18B1D4F81824002A5AD034
:10071000DAB2991C013304EB8202DBB204EB8303EF
:10072000D268DB68029302F00303022B019200916E
:1007300054D1BDF806306348C3F38917502F3E46A5
:1007400028BF502606F1080166F38F13C1F3090193
:10075000ADF8063001F041FA0546002800F0988017
:1007600001F06AFA0023082201A9284601F076FA6E
:100770000099CB43DBB20133C9B20331B6EB830F2F
:100780004FEA830204EB810125D95FFA82F808233E
:10079000A6EB0806284601F061FAF6B208F1080354
:1007A000494903F0FC033246284601F057FA009B02
:1007B000033703EB97070097D4F81834002B43D185
:1007C000D4F8106453E062689A4294D8A260284634
:1007D00004B0BDE8F08108233246E5E7012B57D18C
:1007E000BDF804303748C3F38311062928BF06211A
:1007F00061F38913023101F00F018900ADF8043073
:1008000001F0EBF90546002842D001F015FA00236B
:10081000082201A9284601F021FA0026BDF804208B
:10082000C2F38312B300964203F10803C4D20099C5
:100830004A1CC9B20331009204EB8101042228460C
:1008400001F00CFA0136E9E7284601F0F9F9FFF763
:1008500039FF80F00100C5B2B9E7F3685B7923B1D5
:10086000336829461B6830469847F3681E68002E97
:10087000F3D1284601F0E4F9304600F063FAD4F8E9
:1008800018340BB9009BA360002000F05DFADEE78E
:10089000D4F8104454B90D4B0D480E49C01AC00885
:1008A000000440F0020000F05FF8D0E72368204623
:1008B0009B689847E3681C68ECE7002587E700BF62
:1008C00058010020F42A000064010020AC2A000036
:1008D000CC2A0000542B00002DE9F34704460E46B5
:1008E000924601A9012218469946FFF729FE1C4F9E
:1008F00010B3019D4FF00008AA1CC84508EB020187
:1009000025D11848002100F02BFA80F310000004D4
:1009100040EA1440E4006B1C04F03804DBB2EDB292
:1009200044F0010407EB8303033544EA881444EAE6
:100930008624D86047F825403B781BB1FFF7CCFEF2
:100940000028FBD1FFF7BCFE02B0BDE8F087C9B2BA
:1009500007EB81015AF82830CB6008F10108CCE799
:10096000580100207405002000231A46FFF7B4BF89
:1009700038B5084B0125D3F810441D7004B938BDB3
:10098000E3685D71236820465B689847E3681C68EC
:10099000F4E700BF5801002030B5C38885B0044695
:1009A0000D4633B1144A00921449154A284600F006
:1009B0006FFA217A05291DD0637A4BB1A088FFF721
:1009C00069FE104B104953F82020284600F060FAC9
:1009D000227A0E4BA08853F8222003920021FFF7C1
:1009E0003DFE039A0A490346284605B0BDE830405B
:1009F00000F04EBA05B030BD892B0000712B00000D
:100A0000692B0000F82B00008E2B00001C2C00002E
:100A1000912B000007B503460846197A052911D025
:100A20005B7A2BB1094A0A49019000F031FA01982A
:100A30000849019000F02CFA019803B05DF804EB2E
:100A400000F01BBA002AF8D0F2E700BF892B0000A3
:100A50008E2B0000862B00002DE9F04385B01F4649
:100A60000C9D002395F80C902B7306460C4690467F
:100A700029463846FFF790FFB8F1060F09D8DFE89E
:100A800008F00412181F283340003146284600F0B1
:100A9000FFF9002229463846FFF7BCFF85F80C9085
:100AA00005B0BDE8F08322683146284600F0F0F931
:100AB000EFE7D4E900233146284600F0E9F9E8E7FA
:100AC000A36800933146D4E90023284600F0E0F9FA
:100AD000DFE7E3680193A36800933146D4E900237C
:100AE000284600F0D5F9D4E723690293E36801931F
:100AF000A36800933146D4E90023284600F0C8F9E2
:100B0000C7E76369039323690293E3680193A368CA
:100B100000933146D4E90023284600F0B9F9B8E73C
:100B200008292DE9F74F80460E4617461C463DD84A
:100B300000251B7B2573214610460193FFF72CFFF0
:100B4000DFF88CA0DFF88CB0AE4232D918F805205F
:100B50005946204600F09CF90135082DF4D11B4977
:100B6000DFF874A0DFF874B0204600F091F94FF080
:100B700000094E4524D918F809507E2D1ED8284664
:100B800001F0EEFE002814BF2A462E2259462046C8
:100B900000F07EF909F10109B9F1080FE9D101224C
:100BA00021463846FFF736FF019B237303B0BDE8AB
:100BB000F08F5146204600F06BF9CDE72E22E5E795
:100BC0005146204600F064F9E4E700BFA52B000081
:100BD000A12B00009B2B0000A32B0000A72B0000E3
:100BE000074B1B5C1F2B86BF064903F01F034FF00A
:100BF000A041012202FA03F3C1F80835704700BF93
:100C0000302C00000003005008B50020FFF7E8FF7B
:100C10000120FFF7E5FF0220FFF7E2FFBDE80840F3
:100C20000320FFF7DDBF00000A4B185C1F288ABFB6
:100C3000094B4FF0A04300F01F00D3F80425012119
:100C4000814021EA02000A40C3F80805C3F80C25D8
:100C5000704700BF302C000000030050C20710B5E1
:100C600004460CD54FF0A0430322C3F83427C3F841
:100C70003827C3F83C27C3F84027FFF7C5FFA30771
:100C80000AD54FF0A0430C22C3F82C27C3F8302715
:100C9000C3F86027C3F8642710BD1FB50021039077
:100CA00001AA44F20100CDE9011100F003F805B0FA
:100CB0005DF804FB38B572B6FFF75AFEFFF70CFD7E
:100CC0000028FBD1104B114C114D1249E41AE408D5
:100CD000240444F00100FFF747FED5F8F030DB07AD
:100CE00000D500BE0C4944F00200FFF73DFEBFF303
:100CF0004F8FEA68094B02F4E0621343EB60BFF3E5
:100D00004F8F00BFFDE700BFAC2A0000CC2A0000D7
:100D100000ED00E0342C0000402C00000400FA0537
:100D200072B6024A136801331360704778050020D9
:100D3000034A1368013B136003B962B6704700BFF2
:100D400078050020FFF7ECBFFFF7F2BF024B034A24
:100D50001B681068184700BF840500207C05002030
:100D600010B5034653E8000F0A4643E8002494F008
:100D7000000FF7D110BD10B5034653E8002F42EA2B
:100D8000010043E8000494F0000FF6D110BD10B547
:100D9000034653E8000F00EA010243E8002494F000
:100DA000000FF6D110BD10B5034653E8002F02EB3B
:100DB000010043E8000494F0000FF6D110BD10B517
:100DC000034653E8002FA2EB010043E8000494F02F
:100DD000000FF6D110BD0121FFF7CDBF0021FFF7B5
:100DE000D6BF10B590B1D0E9012301689B1ADBB2E0
:100DF0000A60013BDBB2FF2B026802D100201071B8
:100E000010BD11684C1C14600B70F2E70E20F7E760
:100E100038B504460020FFF795FF22686368116823
:100E2000994213D9481E106011F8013CE568218AE7
:100E300001FB0355A36811791B1ADBB2994200D25A
:100E400013710020FFF780FF284638BD0025F8E722
:100E500038B5054600200C46FFF774FF2A68136872
:100E6000591C1160E968641A298AB4FBF1F41C70FA
:100E7000BDE838400020FFF767BF826810B5044620
:100E80002AB143690168006998470023A36010BD37
:100E90000EB403B5039921B104AB01AA019300F08C
:100EA00077F802B05DF804EB03B070470A2938B553
:100EB00004460D4602D10D21FFF7F8FFA368226812
:100EC000591CA160D554D4E901329A4204D320467A
:100ED000BDE83840FFF7D1BF38BD00002DE9F84F1D
:100EE0009846DDE90A43154682460F460A464FF00A
:100EF0000109AA420FD2C14538BFC14613F0010B08
:100F000001D16CB900240126B8F1010F1BD908F1F9
:100F1000FF386E43F8E709F10109B2FBF5F2E8E7A3
:100F20009B070ED5B8F1000F0CBF30262026A14537
:100F3000E9D2013C31465046FFF7B8FF002CF6D10C
:100F4000E0E72026F3E7B7FBF6F39D42E1D9DFF8AF
:100F50003C80B7FBF6F3504618F8031006FB1377F6
:100F6000FFF7A4FF3346AB42B6FBF5F6F1D2BBF177
:100F7000000F02D00CB1A14501D3BDE8F88F2021AC
:100F80005046013CFFF792FFF4E700BF4D2C0000F4
:100F90002DE9F74F054617468846002900F03E81A7
:100FA00018F8011B49B92B7B002B00F0378128462C
:100FB00003B0BDE8F04FFFF760BF252940F0B780D0
:100FC000002698F800302D2B424608F1010823D066
:100FD000302B24D02B2B25D000242A2B02F1010109
:100FE00023D13B681A1D1B683A601C440A461378DB
:100FF0002E2B26D101324FF0000A104610F8011BAB
:10100000A1F1300CBCF1090F1DD80A2303FB0A1310
:10101000A3F1300A0246F0E746F00106D1E746F0B8
:101020000206CEE746F00406CBE711F8013CA3F137
:1010300030000928DBD80A2202FB0434303C0A467F
:10104000CBE74FF0000A12F8011B01F0FB00682803
:101050009046F8D0782909D86F290CD8632962D036
:1010600022D8252963D0582900F0888098F80030CC
:10107000002B95D197E770390829F7D801A353F8C9
:1010800021F000BFF71100006D1000006D1000008E
:101090008D1100006D1000006B1100006D1000003C
:1010A0006D1000007D110000642901D06929DDD197
:1010B0003A68D2F80090111D89EAE9723960A2EB12
:1010C000E9724FF0010B092A35DCD34538BFD3460E
:1010D0002CB1B9F1000F01DB720700D5013CB30759
:1010E00002D5BAF1000F03D0F00701D44CBB0024A5
:1010F000B9F1000F2DDAC9F100092D212846FFF7BB
:10110000D5FE06F00302022A04D1BAF1000F01D184
:101110001CBB0024CDE9004653460A224946284616
:10112000FFF7DCFEA2E73B681A1D19783A602846F3
:10113000FFF7BCFE9AE70A230BF1010BB2FBF3F2B7
:10114000C1E7A345D4D220212846013CFFF7AEFEDB
:10115000CCE77107D5D52B21D0E7A345DAD23021D2
:101160002846013CFFF7A2FED2E73968CDE90046E8
:101170000A1D3A6053460A220968D0E739680A1DF9
:101180003A60CDE9004653461022F5E73B681A1D48
:101190003A6016F00106D3F8009024D1B9F1000F9F
:1011A00003D0484601F03DFC0646B4421DD809F183
:1011B000FF3919F8011F00293FF458AF2846FFF7FF
:1011C00075FEF6E728460136FFF770FE19F806109F
:1011D0000029F7D1A642BFF449AF20212846013C9F
:1011E000FFF764FEF6E70026F0E720212846013CE1
:1011F000FFF75CFED9E73B681A1D3A6030212846AC
:101200001C68FFF753FE78212846FFF74FFE0022A7
:101210000823CDE900322146102280E703B0BDE863
:10122000F08F00BF13B504460068FFF7F1FD019091
:1012300010B9002002B010BD606801A900F03AFDAD
:101240000028F6D1E269A069D36801990133D3601F
:10125000626A00F086FB0120ECE77FB50B7804465C
:10126000042B58D8DFE803F02110033D4800012388
:101270008DF804304B6802938B680393E3691A6816
:10128000586801A990470EE0C36993F8263053B916
:10129000FFF7C8FF38B9E36993F82520002A3AD050
:1012A000012283F8262004B070BDC3698A685E6994
:1012B000901B30D01A6902441A614A6800253244F2
:1012C000CDE902208DF8045060685D612A4603F183
:1012D000180100F053FD0028D0D02846FFF7DDFCB0
:1012E000CCE70023CDE90133039302238DF80430CA
:1012F0000B798DF80830C1E7C36949681A695869E4
:101300000A44121A1A6100220192039203228DF8F4
:1013100004200291B3E7002004B0BDE87040FFF75D
:10132000BCBC0000836930B5DB681A0B43F307339C
:10133000002B85B004460CDB02F01F015B09012283
:101340008A402033174941F82320BFF34F8FBFF362
:101350006F8FA3695B68D3F84C05E3691A69824211
:101360000FD200218DF80410D3E90515821A0D441F
:10137000CDE902520A44C3E9040201A91A68586877
:101380009047A369DB681A0B43F30733002B07DB95
:1013900002F01F0101228A405B09024941F8232023
:1013A00005B030BD00E100E00846FFF7BBBF00001C
:1013B0002DE9F0434D7F072D8DB004460E4600F019
:1013C000A780C16991F82700002840F0BC80C1E9DE
:1013D00006004B6033690A6008614861C8600B62AF
:1013E00081F82600337D5A1E5342534181F825303F
:1013F000A368002B7AD0554A106892880190ADF806
:10140000082001A9226A013518468DF8065000F01F
:1014100095FE014600287AD13269A068012352095D
:1014200000F0CAFE002872D1A3681D6805F1080704
:1014300005F10408E069083005F5A07900F0A6FD83
:10144000002864D1E069093000F0A0FD00285ED1D9
:10145000A369D968E3692A46187A01F5847100F016
:10146000E1FD002853D1002F65D1E3694246587A47
:10147000494600F0D7FD002849D1A3695968E369BE
:101480004C31587A00F0EEFD002840D1736801938A
:101490003368A5690293B3680393F3680493EB6818
:1014A0002B4A03F58873CDE90530B38AADF82430B3
:1014B000B3690A93737F8DF82C30337F8DF82D300C
:1014C000CDE907002346284601A900F0EFF80546BC
:1014D000F0B92068FFF785FC0546C8B9606800F0E0
:1014E00038FCE369012283F8272011E0E068F8B1B5
:1014F0000422ADF8042001A9164A8DF80630013502
:1015000002948DF8075000F0E7FE014620B1032554
:1015100028460DB0BDE8F08301233269E06800F091
:1015200055FFE3681D6805F10C0705F1100881E718
:10153000FFF7B3FBEBE7E3693946187A00F092FD59
:10154000002892D0E3E70825E2E700BF6C2C0000FA
:101550005B120000A913000038B504460068FFF7CD
:1015600057FCE269D3680133D360054608B9FFF739
:1015700094FBA36803B31B6801229A60E369187A9D
:1015800000F084FD10B10020FFF787FBE369587A73
:1015900000F07CFD10B10020FFF77FFBE369626A79
:1015A0009D61A0690023294600F0A6F950B1BDE86D
:1015B00038400020FFF771BBE0680028DED000F063
:1015C00001FFDBE738BD806900F04CB938B5C3696D
:1015D0000446D869656A0244AA42DA611AD1002534
:1015E000DD61091A2068FFF733FCE269D368013B2B
:1015F000AB42D36002DA2846FFF74FFBE36993F86A
:10160000263033B12046FFF70DFEE369002283F850
:10161000262038BDFDD9BDE838400020FFF73DBB8E
:101620000023435082B043580193019B02B070479E
:101630007047F8B50546002414272E68305D13283E
:1016400005D800F039FD305D00F0CEFC375501348F
:10165000092CF2D12C68607A052803D800F042FDED
:10166000062363722C68A07A052803D800F03AFD9F
:101670000623A372F8BD73B50546CDE900211E46C9
:1016800000F084FC80B9DDE90021287800F0CAFC74
:10169000044628B92EB12878314600F0E3FC00B1A9
:1016A0000324204602B070BD0424FAE7F7B50D46C6
:1016B000016891F83C600446002E40F0BE80C0688E
:1016C0004B63FF2381F83A305F4B4A62C31A18BF5D
:1016D00001235E4A0E6242F823402A68CE601F2A28
:1016E000C1E9066687BF02F01F0359494FF0A041C8
:1016F000134601269E4003F5E073C1F808650326F2
:1017000041F8236095F829106B68002908BF00266E
:101710001F2B8BBF03F01F0119464D4F4FF0A04701
:1017200001F5E071B60047F82160696AC0F8241538
:1017300095F8206095F82110012E41EA0601C0F8C5
:101740006C15C0F80C25C0F814357AD0414AC0F8A1
:10175000042395F8282040F307335201002BC0F3EF
:101760000730D2B239DB03F160415B0901F5614119
:101770009B0003F1604381F8002303F561430122DC
:1017800000F01F0002FA00F0C3F880011860E3685F
:101790000822C3F80025304A0023CDE9002369461A
:1017A0002E4A201D00F098FDA8B926684FF014338A
:1017B00033607360337206237372B3726268E168D8
:1017C0000346083201F58471301DFFF754FF48B11C
:1017D0002046FFF72EFF032630E0214B00F00F00DC
:1017E0001A54D4E7D4E90003E268403302F5887163
:1017F0000530FFF740FF06460028E9D16B69BBB111
:10180000EB69ABB16268E1682068403201F588712C
:101810000630FFF730FF0028DAD16368E2682068FD
:101820006969443304320230FFF725FF0028CFD125
:101830002368012283F83C2000E00826304603B0EC
:10184000F0BD0726FAE700BF002000408805002011
:101850000003005010034800000103063116000089
:1018600014ED00E0F8B505460068C368002B41D1CF
:10187000B2F5803FC0E90312436129D294B20387D5
:10188000E868C0F84415C0F848454FF4A871FFF760
:10189000C7FEE8680123B2F5803F836016D3D0F815
:1018A0005031002BFBD04FF4A871FFF7B9FE2B6825
:1018B000187A132801D800F0E9FB2B68EA68198F21
:1018C000DB681C44C2F84445C2F84815002012E009
:1018D00002F57F444FF6FF73FE34B4FBF3F4B2FB22
:1018E000F4F4A3B2B2FBF3F603FB162616FA84F463
:1018F000A4B2C4E71120F8BD73B51E4603680446C0
:10190000986958BB1A6329B19961E368C3F8341523
:10191000C3F83825201D019000F046FD019800F025
:1019200051FD2368E06800254FF48871C3E90A552A
:10193000FFF776FEE0684FF4A671FFF771FE2368AB
:10194000585D132801D800F0A1FB0135082DF6D110
:1019500016B9E36801221A60002000E0112002B0ED
:1019600070BD036810B5DC6934B9D961C368C3F8C8
:101970003415C3F8382510BD1962FCE7694B2DE911
:10198000F0411C68E068D0F8243186B0B3B14FF460
:101990009271FFF745FE0023CDE90333059303233E
:1019A0008DF80C30E268D2F88034C2F880348DF8BB
:1019B0001030236803A95A6A586B9047E068D0F842
:1019C0004C317BB14FF4A671FFF72AFE0023CDE91D
:1019D0000333059301238DF80C30236803A95A6A59
:1019E000586B9047E068D0F81031002B49D04FF485
:1019F0008871FFF715FE6368D3F84065D3F8447526
:101A00002368D3E90A52751BC3E90A6701D19742DB
:101A100037D0186B85422A4628BF02469446A5EB6C
:101A200002089A69CDE9012CDA690021C3E906218F
:101A30001A6A8DF8001032B1C3E90721E168C1F8D4
:101A40003425C1F838055A6A586B69469047B8F191
:101A5000000F05D123681B6B9D4212D1BE4210D1ED
:101A60000025042303958DF80C30236805955A6AE8
:101A7000586BCDF8108003A990472368DA69C3E951
:101A80000625E068D0F858318BB14FF4AC71FFF700
:101A9000C7FD02238DF80C302368DA6804921A69B6
:101AA00005920022DA60586B5A6A03A99047E068F1
:101AB000D0F82031A3B14FF49071FFF7B1FD236846
:101AC000E0685969D0F84C250A4419695A618A427C
:101AD00009D14FF4AC71FFF7A3FDE3680122DA608E
:101AE00006B0BDE8F081891AB1F5803F11D3198F96
:101AF0001144DA68D0F850310A444FF4A871FFF766
:101B00008FFD2168E368098FC3F84425C3F84815A1
:101B1000E6E7187A1328E3D806B0BDE8F04100F0F4
:101B2000CBBA00BF880500202DE9F84FB0F806A019
:101B30004579D2F800B09DF828900AFB05F5043DE0
:101B400088460BEB0301A94203F1040488BFA5EB0F
:101B5000030BB4FBFAF607460AFB1644C2F800B0C2
:101B60004EB9AAEB04055D4528BF5D46BBF1000FE9
:101B700004D1BDE8F88F3F68013EF1E7043408EB7B
:101B800006003C442A46B9F1000F0DD02146ABEBCC
:101B9000050B00F0EAFEDA452E443F6855464FF04B
:101BA000000428BF5D46E1E701462046EFE7F8B5AF
:101BB00046790146721E0546002393422D6803D3E1
:101BC0000024A64202D8F8BD0133F6E70F68284684
:101BD000FFF73EF901343946F3E72DE9F843068A69
:101BE000CD1C0746FFF714F9043E35440446B5FB07
:101BF000F6F5F0B14FF48073EDB28380C680013DFD
:101C0000076081464FF00008A84512D23846FFF71A
:101C1000FFF8064648B163790133637108F10108A2
:101C2000C9F8000007608146EEE72046FFF7BFFFD6
:101C300034462046BDE8F88301210430FFF7B3B8ED
:101C400010B5012104460430FFF7B9F8C0B220B93D
:101C50002046BDE81040FFF7AABF10BD1FB5039294
:101C60000022009203AAFFF75FFF05B05DF804FBB6
:101C70001FB503920122009203AAFFF755FF05B09A
:101C80005DF804FB026813685268934291BFD01A52
:101C900080680130801888BFC01A70470368816867
:101CA0001A685B688B4234BF01330023D31A584251
:101CB0005841704770B5044600200D46FFF742F8C2
:101CC0002046FFF7EBFF10B1237C002B3BD12368AC
:101CD000A1685E685A688A4234BF013200225A60A5
:101CE00028B11A688A4234BF013200221A60E268C1
:101CF0006368511E072920D8DFE801F004101F1483
:101D00001F1F1F182A789A552046FFF7BBFF23682C
:101D10009A68824200D29860002415E02A8823F84D
:101D20001620F1E72A6843F82620EDE7D5E90001FF
:101D300003EBC603C3E90001E6E7294602FB0630D0
:101D400000F013FEE0E704240020FEF7FDFF20462C
:101D500070BD10B504460020FEF7F4FF2368002094
:101D6000186058609860BDE81040FEF7EDBF03684A
:101D700018685B68C31A58425841704770B50546E9
:101D800000200C461646FEF7DDFF2846FFF7EFFF62
:101D9000002830D12B6819682EB91A68A8688242C9
:101DA00038BF561C1E60EA686B68501E07281CD896
:101DB000DFE800F0040C1B101B1B1B145B5C237082
:101DC00000240020FEF7C0FF204670BD33F811301C
:101DD0002380F5E753F821302360F1E703EBC103DB
:101DE000D3E90023C4E90023EAE701FB02312046DE
:101DF00000F0BBFDE4E70524E3E7000038B5074C3D
:101E0000051E04F1080318BF1C4623682BB11A688D
:101E100022605B6828469847F7E738BD98050020A0
:101E200020B9054B01225A70FFF7E8BF012802D103
:101E3000014A9070F8E770479005002038B50C4CC7
:101E400023789BB90B486360A3602361E36000F0D3
:101E500049F8054600F052F801232370064BD3F8E9
:101E600000340BB10123A370284638BD8525F5E762
:101E700090050020211E00000000014038B5134CE1
:101E8000A378054603F0FF0073B115B16B6801201C
:101E900098470020FEF756FFE3680133E360002017
:101EA000BDE83840FEF750BFFEF74CFF25B1226970
:101EB00013463BB92A602561E368002BECD100F0A2
:101EC0002FF8E9E79D42F7D01B68F2E79005002064
:101ED00000F18040002382B0036003680193019BFE
:101EE00002B07047044A137923B901211060918030
:101EF0001846704785207047A4050020074B1A68D4
:101F0000D20704D4C02283F8002301221A604FF0C4
:101F100080430122C3F81825704700BF00E100E0AC
:101F200008B54FF48270FFF7D3FF4FF080430222D1
:101F3000C3F8042301229A6008BD00004FF08041DD
:101F400010B5D1F8003163B14FF48070FFF7C0FFD6
:101F50000D4B58790122C1F8082310B95A711B683A
:101F600098474FF08042D2F8043163B14FF4827049
:101F7000FFF7AEFF0223C2F80833034BBDE8104061
:101F80001B680120184710BDA40500202DE9F84F5B
:101F9000134DDFF8508007464FF0000A04264FF03B
:101FA00001095FFA8AFB002009FA0BF4FEF7CAFE6A
:101FB0002C420AD0D8F8003014EA030201BF2343B0
:101FC000C8F8003087F800B016460020FEF7BCFEC7
:101FD0001EB1A5430AF1010AE3D13046BDE8F88FEE
:101FE000FFFF0F00AC050020012310B503FA00F439
:101FF000C4F313037BB1094B0020C3F80845FEF777
:10200000A1FE074B186820EA040018600020FEF7C4
:102010009BFE002010BD0720FCE700BF00F0014040
:10202000AC05002010B5A1B19AB101238340C3F3E0
:10203000130484B10A4C246823420ED0C00000F17E
:10204000804000F5F830C0F81015C0F814250020C5
:1020500010BD0E20FCE70720FAE70820F8E700BFD4
:10206000AC050020074A01231268834013421FBFBA
:1020700000F51170044B43F82010002008BF082021
:10208000704700BFAC05002000F00140012303FAB7
:1020900000F0C0F313031BB1054B1B68184204D0BA
:1020A000044BC3F80405002070470820704700BFA8
:1020B000AC05002000F00140012303FA00F0C0F35A
:1020C00013031BB1054B1B68184204D0044BC3F823
:1020D0000805002070470820704700BFAC050020AD
:1020E00000F0014070B5104C012303FA00F522788E
:1020F00015F03F0F14BF002607262A4211D0C0005A
:1021000000F1804000F5F83043600020FEF71AFE31
:102110002378002023EA05032370FEF715FE3046DE
:1021200070BD0826FBE700BFB00500200023435028
:1021300082B043580193019B02B07047F0B51A4C2E
:1021400043791A4D44F8232003EB4303EB5C43BB74
:1021500090F904408B7802795B01002CDBB21BDB29
:10216000134E371987F800330123640902F01F0268
:1021700003FA02F246F8242003680A88C3F8082507
:1021800043790879C97803EB4303EA1850709170DA
:102190000122EA540020F0BD064C02F00F02A354C5
:1021A000EAE70820F7E700BFB4050020B1050020EA
:1021B00000E100E014ED00E02DE9F04105464FF4A8
:1021C000803400681C4F8C40C0F84843C0F8084376
:1021D00095F805C00CEB4C063E4422F07F4296F881
:1021E000018001F5A8764FEA4C0E40F82620B8F1A0
:1021F000000F11D0D0F80485F4446744A8EB020620
:10220000904538BF06F1FF16BA7838BF06F57F460D
:10221000B24201DD0D200CE03BB15031890089B2A2
:10222000FFF784FF2B68C3F804432B680020C3F832
:102230004443BDE8F08100BFB10500202DE9F04125
:10224000224E234FDFF88C8000254FF48034D7F8DE
:10225000043306F5A041234289B20CD0336853B150
:10226000C7F848433846C7F80843FFF75FFFD8F878
:102270000030E8B298470135032D4FEA440406F1D7
:102280000406E4D11248D0F80433DA070AD5D0F8AE
:1022900000313BB14FF48071FFF748FF0D4B042034
:1022A0001B6898470A48D0F804339B070CD5D0F830
:1022B00004314BB14FF48271FFF738FF054BBDE895
:1022C000F0411B6805201847BDE8F08140B100408F
:1022D00000B00040B4050020F7B506792F4D0C235F
:1022E0007343EF183C7A002C55D1EA504B687B6061
:1022F000477903682246A446D4B2A7423CD8CA789C
:1023000043F307345201002CC3F30733D2B23DDB51
:10231000234F07EB040C8CF800230122640903F01F
:102320001F0302FA03F347F8243003684A78D3F80E
:10233000040502F0030220F003000243C3F8042561
:10234000D3F808058A7820F0030002F00302024364
:10235000C3F80825D3F810050A7820F00F0102F021
:102360000F020A43C3F810250C2303FB0655012373
:102370002B72002003B0F0BD940004F5A07401326C
:1023800043F804C01C590194019CB5E7054C03F0C7
:102390000F03E254C9E70820ECE700BFB8050020AE
:1023A00000E100E014ED00E0036801221A60027908
:1023B000034B0C2101FB023302221A72704700BF4B
:1023C000B805002003680122DA60704737B54FF482
:1023D000803400688C407BB18B0003F5A07300252E
:1023E000C550C3580193019BC0F8044301F5A8717F
:1023F00040F8212003B030BDC0F80843F6E70000E4
:102400002DE9F341104C114F114E00254FF4803847
:10241000236883B1D7F8043308FA05F21A420AD0C8
:102420000023236023680193A4F50040019B80B240
:10243000D6E9003198470135042D04F10404E7D1B1
:1024400002B0BDE8F08100BF408100400080004044
:10245000B805002037B50B78012B05460C4624D073
:10246000022B12D0FBB9D1E90112FFF7ACF8112809
:1024700011D1636800931A48A36801936946FFF776
:1024800019FC50B1FEF709FC07E0002003B0BDE8DD
:102490003040FEF7C9BB0028F4D10120FEF7C4FB91
:1024A000104B01221A7003B030BD0E4B1B78A3B144
:1024B000D1E90112FFF78AF80948FFF758FC0246F4
:1024C00058B907486946FFF759FC08B1FEF7E5FB24
:1024D000DDE900122846FFF776F80220D6E700BFB4
:1024E000842A0000B809002008B5064B06481A6A7D
:1024F000002101235209FFF75FFEBDE808400348B1
:10250000FEF710BF2C090020D82C0000A02C0000E2
:1025100000B5012089B0FEF7A1FBFFF78FFC08B1E1
:10252000FEF7BBFB0020FFF7A9FC1822002102A840
:1025300000F044FA06230822CDE900238DF81D306F
:1025400064220D4B04924FF08052069269460B4A6A
:102550001846FEF72DFF08B1FEF79FFB0648FEF771
:10256000FBFF074904482422FFF72DF808B1FEF7C6
:1025700094FBFEF7B1F8FCE7A02C00005524000006
:10258000080000200369C26893429CBF80681B1842
:10259000013B981A70472DE9F843D0E902940546AB
:1025A000A9EB04084068904520440F46144404D920
:1025B00000F0DBF9EC60BDE8F8834246A4EB0904C7
:1025C00000F0D3F96868224607EB0801F0E72DE92F
:1025D000F843C5680646894617464FF00008346937
:1025E000B3687068A54228BFE418013C621B5C1BFD
:1025F000BC4228BF3C46944228BF14464946284462
:10260000224600F0B2F9B3682544AB4208BF00256A
:102610003F1BA044A144F560E1D14046BDE8F883EA
:1026200070B5164B182400FB04451D4404FB003311
:102630001646DC6A012C0ED0022C18D0E4B92846CC
:10264000FFF7A0FF864204D832462846FFF7A3FFD3
:102650003446204670BD2846FFF794FF8642344634
:1026600028BF044622462846FFF795FFF1E7284693
:10267000BDE87040FFF7ABBF0024EAE7BC090020CB
:102680004FF08053D3F83001A0F10803584258416D
:10269000704700004FF08053D3F83021082A06D14C
:1026A000D3F83431052B02D8024AD05C70470020A1
:1026B000704700BFE62C0000024AD2F80034002B1D
:1026C000FBD0704700E0014010B5FFF7D9FF40B1E3
:1026D0004FF080430022C3F80C21C3F81021C3F847
:1026E0003825FFF7CDFF002846D04FF08052654BCC
:1026F000D2F80414C3F82015D2F80814C3F824152E
:10270000D2F80C14C3F82815D2F81014C3F82C15FD
:10271000D2F81414C3F83015D2F81814C3F83415CD
:10272000D2F81C14C3F84015D2F82014C3F844158D
:10273000D2F82414C3F84815D2F82814C3F84C155D
:10274000D2F82C14C3F85015D2F83014C3F854152D
:10275000D2F83414C3F86015D2F83814C3F86415ED
:10276000D2F83C14C3F86815D2F84014C3F86C15BD
:10277000D2F84424C3F87025FFF78CFF18B1424B00
:10278000424AC3F88C26FFF785FF18B1404BFB2265
:10279000C3F81825FFF77EFF70B14FF080414FF06E
:1027A0008053D1F8E42ED3F8583222F00F0203F010
:1027B0000F031343C1F8E43EFFF76CFF20B1354B24
:1027C0004FF40072C3F84026FFF75AFF48B14FF0AC
:1027D0008043D3F80024D20744BF6FF00102C3F84E
:1027E00000242D4AD2F8883043F47003C2F88830B0
:1027F000BFF34F8FBFF36F8F4FF08053D3F830216B
:10280000082A0ED1D3F83431052B02D8234AD35CE1
:102810003BB14FF01023D3F808224FF08043C3F8A8
:1028200058254FF01023D3F80022002A03DBD3F8F9
:102830000432002B22DA1A4901234FF01020C1F88C
:1028400004351224FFF738FFC0F80042FFF734FFC9
:10285000C0F80442FFF730FF0023C1F80435FFF74A
:102860002BFFBFF34F8F0C490E4BCA6802F4E06296
:102870001343CB60BFF34F8F00BFFDE70A4B0B4AFA
:102880001A6010BD00C000400050004048810300A5
:1028900000F000400090024000ED00E0E02C00005D
:1028A00000E001400400FA052C0000200090D00355
:1028B0007F2805D8034B185C034B5B5C18407047BE
:1028C00000207047F82C0000782D0000A0F1610373
:1028D000192B98BF20387047A0F14103192B98BFDE
:1028E000203070477F2805D8034B185C034B5B5C96
:1028F0001840704700207047F82C0000782D000029
:10290000A0F16103192B98BF20387047A0F1410353
:10291000192B98BF203070477F299ABF0170012082
:102920006FF02E0070475AB10A787F2A0AD800B19A
:102930000260002119605960501A18BF01207047C9
:10294000002070476FF02E007047000008B5034B61
:102950005B689B681B68984708BD00BF300000207B
:1029600008B50921FFF7F2FF08BD844640EA0103DC
:1029700013F0030F18D18446202A0BD32DE9F0075A
:10298000B1E8F807A0E8F807A2F12002202AF7D260
:10299000BDE8F007042A07D351F8043B40F8043B94
:1029A000A2F10402042AF7D2002A05D011F8013B53
:1029B00000F8013B013AF9D1604670478446002A8D
:1029C0002DD010F0030F04D000F8011B013A26D0DF
:1029D000F7E7C9B241EA012141EA0141202A12D3B5
:1029E000A2F120022DE9F0030B460C460D460E46DF
:1029F0000F4688468946A0E8FA03203AFBD2BDE894
:102A0000F00320320BD0042A05D340F8041B043A0B
:102A100005D0042AF9D200F8011B013AFBD1604627
:102A2000704700F1010110F0030F11D010F8012BD5
:102A3000002A23D010F0030F0AD010F8012B002A2F
:102A40001CD010F0030F03D010F8012B002A15D072
:102A50002DE970004FF001324FF0803350F8044BF5
:102A6000A4EB020525EA04051D4000D1F6E7A0F11C
:102A7000040070BC10F8012B002AFBD1A0EB010070
:042A8000704700009B
:102A8400AC090020540900200A00000008000000DE
:102A940001000000200900201009002003000000AC
:082AA400040000000100000025
:102AAC008A2C000000000000902C000000000000A8
:102ABC00942C000000000000982C00000000000086
:102ACC00652B000000000303842C000000000000B4
:102ADC00722C0000000000005D2C000000000000C3
:082AEC007B2C0000000000003B
:102AF4008800002050010020580100209000002090
:102B040018000000040600200C0900200F09002012
:082B14000C0600200001000086
:102B1C00382B000000000000442B000000000020B7
:102B2C00000000000338FDD870470000D5030000FA
:102B3C0041040000D10300007274745F6C6F675F16
:102B4C006261636B656E64004261636B656E647396
:102B5C0020666C757368656400617070001B5B3176
:102B6C003B33316D0025734C6F67732064726F704B
:102B7C00706564202825642925730D0A001B5B30C1
:102B8C006D002573003C25733E2025733A200020F0
:102B9C002530327800202020007C002563001B5B50
:102BAC00313B33306D001B5B313B33326D001B5BB3
:102BBC00313B33336D001B5B313B33346D001B5B9E
:102BCC00313B33356D001B5B313B33366D001B5B8A
:102BDC00313B33376D007761726E696E6700696ED9
:102BEC00666F00646562756700000000892B000049
:102BFC00AA2B0000692B0000B22B0000BA2B00009E
:102C0C00C22B0000CA2B0000D22B0000DA2B0000D4
:102C1C00000000003A2C0000E22B0000EA2B000020
:102C2C00EF2B00000D0E0F10466174616C20657265
:102C3C00726F720053797374656D2072657365746D
:102C4C00003031323334353637383941424344451C
:102C5C00466C696255415254455F6173796E6300ED
:102C6C000000064100006C696255415254450073E6
:102C7C006F72746C69737400636C6F636B00434C9C
:102C8C004F434B00505049005254430054494D455A
:102C9C0052000000082B0000982A0000D82C0000DD
:102CAC00000000000000000000000000C82C000024
:102CBC002C090020E9240000FF000000C4050020BE
:102CCC0000800040000400000020004000B00040E4
:102CDC000B000300000000000101010000000000D7
:102CEC0043000000504F5349580000002020202082
:102CFC002020202020682828282820202020202060
:102D0C0020202020202020202020202048101010BF
:102D1C0010101010101010101010101084848484D7
:102D2C00848484848484101010101010108181818C
:102D3C0081818101010101010101010101010101F7
:102D4C00010101010101011010101010108282828A
:102D5C0082828202020202020202020202020202C7
:102D6C0002020202020202101010102000070320BF
:102D7C00041702010857104080000000EC2C0000E2
:102D8C00F02D0000042F000053756E004D6F6E0087
:102D9C005475650057656400546875004672690087
:102DAC0053617400000000004A616E0046656200C9
:102DBC004D617200417072004D6179004A756E0070
:102DCC004A756C0041756700536570004F63740061
:102DDC004E6F76004465630000000000414D0050CA
:102DEC004D000000282F0000242F0000242F00008D
:102DFC00242F0000242F0000242F0000242F00007B
:102E0C00242F0000242F0000242F0000FFFFFFFFC1
:102E1C00FFFFFFFFFFFFFFFFFFFF0000642E00001E
:102E2C00942D0000A02E0000B42D0000E82D000011
:102E3C00482E0000F82E0000542E0000256D2F2582
:102E4C00642F25790000000025612025622025656E
:102E5C00202554202559000053756E646179004D6E
:102E6C006F6E6461790054756573646179005765A0
:102E7C00646E65736461790054687572736461790A
:102E8C00004672696461790053617475726461798A
:102E9C00000000004A616E756172790046656272CD
:102EAC0075617279004D6172636800417072696C72
:102EBC00004D6179004A756E65004A756C79004168
:102ECC0075677573740053657074656D6265720017
:102EDC004F63746F626572004E6F76656D626572DA
:102EEC0000446563656D62657200000025483A25F3
:102EFC004D3A255300000000B1280000CD280000F9
:102F0C00D9280000E5280000012900000D29000047
:102F1C001929000027290000000000002E000000E5
:102F2C0000000000FF0000005541525420657861FC
:102F3C006D706C6520737461727465642E0D0A205B
:102F4C004C6F6F706261636B3A0D0A000090D00396
:102F5C00882D0000882D0000882D0000882D000091
:042F6C00882D0000AC
:040000030000037581
:00000001FF
