:1000000000000820790500005D0500005F05000084
:10001000610500006305000065050000670500003C
:100020000000000000000000000000006905000062
:100030006B050000000000006D0500006F0500006A
:10004000710500007105000000000000710500004E
:1000500000000000B54700000000000000000000A4
:10006000593D000071050000710500007105000098
:10007000710500007105000071050000C552000007
:100080007105000071050000000000000000000084
:10009000194D000071050000000000000000000084
:1000A0007105000071050000710500007105000078
:1000B0007105000071050000710500007105000068
:1000C0007105000071050000710500007105000058
:1000D0007105000000000000710500000000000034
:1000E00071050000000000007105000071050000AE
:1000F0000000000071050000000000007105000014
:100100000000000000000000000000007105000079
:10011000710500000000000071050000710500007D
:100120000000000071050000000000000000000059
:1001300000000000000000000000000000000000BF
:1001400000000000000000000000000000000000AF
:100150007105000000000000000000000000000029
:10016000000000000000000000000000000000008F
:10017000000000000000000000000000000000007F
:10018000000000000000000000000000000000006F
:10019000000000000000000000000000000000005F
:10040000354936480A1A02D0072291438D463449AD
:1004100034480A1A06D00722914381F30988022240
:1004200082F3148830483149314A00F044F83148A9
:100430003149324A00F03FF831483249324A00F03F
:100440003AF832483249334A00F035F832483349F5
:10045000334A00F030F833483349344A00F02BF87F
:1004600033483449344A00F026F8344834490022ED
:1004700000F02CF833483449002200F027F83348C4
:100480003349091A082902DB002202604160314A1F
:1004900090471F481F49884205D00268043003B4C2
:1004A000904703BCF7E700208646EC460020002179
:1004B000294A9047FEE7884207D0521A05D00378B0
:1004C00001300B700131013AF9D17047884202D0F6
:1004D00002700130FAE770470000082000E00720B2
:1004E0000000082000000820A86D00000000002087
:1004F00084000020C0050000C0050000845E0000EC
:10050000A86D00000000002000000020245F000013
:10051000245F0000245F0000245F0000245F0000CF
:10052000245F0000245F0000245F0000A86D00002D
:100530002C6E000084000020840000208400002035
:10054000740A0020740A0020740A0020740A002033
:10055000742A00208F050000E9550000FEE7FEE741
:10056000FEE7FEE7FEE7FEE7FEE7FEE7FEE7FEE763
:10057000FEE700F003B800BFFFF7FBBF0B484FF0EA
:100580000701884385460A488047FFF739BF094875
:1005900009490A4A884207D0521A05D00378013027
:1005A0000B700131013AF9D17047000000000820BA
:1005B000455B0000245F00000000002000000020D8
:1005C00000B585B00190019B002B11D00A4B43F080
:1005D00001030393094B1B68094AA2FB03239A0CEE
:1005E000019B02FB03F30293039B0298984700E0F0
:1005F00000BF05B05DF804FB305F00006C00002018
:1006000083DE1B4300B583B00190019B002B0AD011
:100610004FF47A70FFF7D4FF019B013B0193019BDC
:10062000002BF5D100E000BF03B05DF804FB000033
:1006300000B589B0039002910192019B002B33D049
:100640000023079303230693029A079B1344019AFE
:100650001946002005F0D0F80590079A059B134431
:100660000793019A059BD31A0193059B002B13D185
:100670000F4B1B7883F00103DBB2002B13D1012059
:10068000FFF7C0FF069B013B0693069B002B03D19F
:10069000074B00221A7007E0054B01221A70019BDC
:1006A000002BD1D100E000BF00BF09B05DF804FB12
:1006B0008400002000B585B003900291054B0093A3
:1006C0004023054A0299039800F012F800BF05B0D4
:1006D0005DF804FB310600008800002082B0019024
:1006E00000BF02B0704782B0019000BF02B07047F7
:1006F00000B5A1B00590049103920293049803F011
:10070000C6FB039B1593029B1693002317930023AC
:100710008DF8603000231993229B1A9300231F93B6
:100720000FA91F9B0822049803F08AFC08231F933B
:10073000119B1293BDF84030ADF84C30BDF84230FB
:10074000ADF84E3000238DF851309DF83C3003F069
:100750000303DBB2012B26D10F9BC3F395231C931C
:100760009DF83C30C3F3C203DBB28DF85030BDF8C6
:100770003C30C3F38313DBB21B931B9B9A0009A984
:100780001F9B049803F05CFC1B9B9B001F9A134467
:100790001F9312AA09A915AB009313461B9A1C9824
:1007A00000F0F0FD2FE09DF83C3003F00303DBB2D6
:1007B000022B28D1BDF83E30C3F389139BB21E93A0
:1007C0009DF83C30C3F3C203DBB28DF850301E9B62
:1007D000082B28BF08231D9307A91F9B1D9A049867
:1007E00003F02EFC1F9A1D9B13441F931E9A1D9B02
:1007F000D31A1E9315AB12AA07A81D9900F064FE28
:100800001E9B002BE3D1049803F050FB00BF21B0E6
:100810005DF804FB00B583B001900091019B1B685B
:100820001B6800990198984700BF03B05DF804FB6E
:1008300000B583B00190019B1B685B6801989847E5
:1008400000BF03B05DF804FB00B583B00190019BCD
:100850001B689B680198984700BF03B05DF804FBD4
:1008600082B00190019BDB6801225A7100BF02B087
:10087000704782B00190019BDB685B79184602B03B
:1008800070470000024A034BD31ADB081846704732
:10089000EC5E0000AC5E000000B587B001900B4636
:1008A0008DF803309DF80330002B1FD0FFF7EAFFCF
:1008B00004900023059313E0059B9B000E4A13440C
:1008C0000393039B1B881A46019B1B689A4204D121
:1008D000019B059A1A60002309E0059B01330593EB
:1008E000059A049B9A42E7D3052300E000231846AB
:1008F00007B05DF804FB00BF0000002000B585B024
:1009000001900B468DF803309DF8032001AB114692
:100910001846FFF7C1FF0346002B07D1019BDB0000
:10092000054A13440393039B1B6800E00023184609
:1009300005B05DF804FB00BFAC5E000084B0019020
:100940000B468DF80330019BDB00174A13440293DA
:100950009DF80330013B032B1CD801A252F823F071
:100960007109000079090000810900008B0900006D
:1009700002238DF80F3011E004238DF80F300DE0C5
:10098000029B1B798DF80F3008E0029B5B798DF894
:100990000F3003E000238DF80F3000BF9DF80F30BB
:1009A000184604B0704700BFAC5E000084B00190F0
:1009B000009100238DF80F30019B1B7803F0040396
:1009C000DBB2002B24D0019B1B78C3F30103DBB205
:1009D000012B02D0022B0CD017E0009B1B68019A60
:1009E0001288C2F38312D2B213449A1C009B1A607D
:1009F0000BE0009B1B68019A5288C2F3891292B2E5
:100A000013449A1C009B1A6000BF01238DF80F301D
:100A10009DF80F30184604B07047000000B58BB049
:100A20000023ADF826303E4801F0FBF83D4801F0C8
:100A3000F8F83D4B9B6804933C4B1B680693049A63
:100A4000069B134002339B00374A13440433089338
:100A500004AB19460898FFF7A9FF0346002B09D0FD
:100A6000049A069B134002339B002F4A134404331D
:100A70000893EDE700BF0023079311E0049B5A1C85
:100A80000492069A1340079A920001A90A44264943
:100A900002339B000B445B681360079B0133079391
:100AA000079B012BEAD99DF80430C3F30103DBB2A5
:100AB000012B10D0022B1CD1BDF80A30ADF8263026
:100AC000BDF80630C3F389139BB203339A08049B25
:100AD0001344049313E0BDF80A30ADF82630BDF896
:100AE0000430C3F38313DBB21A46049B134404930C
:100AF00005E00F494FF4C27001F006F800BF094845
:100B000001F09BF80590059B002B02D0049B064A40
:100B10009360BDF8263018460BB05DF804FB00BFAB
:100B2000B0050020AC05002098010020080000203E
:100B3000A45F000000B585B00021074800F0FAFF6F
:100B40000390039B0293029B83F310030193019B89
:100B5000184605B05DF804FBB405002000B589B067
:100B60000390029101920093039B1B0C0793FFF7E4
:100B7000E1FF0690FFF786FE0246079B934204D3EF
:100B8000214940F2A91000F0BFFF069B1904009B09
:100B90005A1C0A9B1340079A0A431C4902339B00C4
:100BA0000B445A60009A0A9B134002339B00174A79
:100BB000134404330593039B03F00703D9B2059A4A
:100BC000137861F3C5031370019B03F00F03D9B2CF
:100BD000059A138861F389131380029BC3F31501EF
:100BE000059A136861F39F231360059A1378012116
:100BF00061F301031370059A13786FF38203137086
:100C000000BF09B05DF804FBA45F0000980100205C
:100C100000BF704700B58BB00390029113468DF86A
:100C20000730039B0233089301238DF81F30002007
:100C300000F056FF3E4B5A68029B1A603D4B1A6803
:100C40003B4B99683A4B5B68CB1A134401330993C9
:100C500014E00121384800F0B4FFFFF7DFFE0590F3
:100C60000599354800F0ADFF324B1A68304B996852
:100C70002F4B5B68CB1A134401330993089A099BE5
:100C80009A42E6D89DF81F30002B48D000230493E9
:100C90009DF80730002B17D09DF81030012262F329
:100CA00001038DF810309DF8103043F004038DF8E7
:100CB0001030039B03F00F03DAB2BDF8103062F37B
:100CC0008913ADF8103016E09DF81030022262F35F
:100CD00001038DF810309DF8103043F004038DF8B7
:100CE0001030039BC3F309039AB2BDF8123062F3CC
:100CF0008F13ADF812300E4B5A680E4B1B68134021
:100D000002339B000A4A134404330693049A069B59
:100D10001A60074B5A68089B1344054A5360002029
:100D200000F0E7FE9DF81F3018460BB05DF804FB9D
:100D30009801002008000020B405002000B58BB009
:100D40000590049103920293204B1B68079306AB16
:100D5000012219460298FFF75DFF0346002B24D0BD
:100D6000069B023309930023089311E0089B9B0024
:100D7000039A1A44099B591C099107990B40126860
:100D8000134902339B000B445A60089B01330893BC
:100D9000089A029B9A42E9D3069A079B009313464E
:100DA000029A04990598FFF7D9FE094B1B78002B8E
:100DB00005D000BF00F06AF80346002BFAD1FFF718
:100DC00027FF00BF0BB05DF804FB00BF0800002048
:100DD0009801002000B583B001900091002300220B
:100DE00000990198FFF7AAFF00BF03B05DF804FB6C
:100DF00000B587B0039002910192019B059305AA6B
:100E0000012302990398FFF799FF00BF07B05DF82F
:100E100004FB00B587B00390029101920093019BFF
:100E20000493009B059304AA022302990398FFF7F9
:100E300085FF00BF07B05DF804FB00B58BB00390E1
:100E4000029101920093019B0593009B06930C9BDA
:100E500007930D9B08930E9B099305AA05230299FE
:100E60000398FFF76BFF00BF0BB05DF804FB0000B9
:100E7000054B9A68044B5B689A420CBF0123002320
:100E8000DBB21846704700BF9801002000B599B04A
:100E9000FFF7EEFF0346002B01D00023B9E19B4B87
:100EA0000022C3F81824BFF34F8F00BF974B9B68F5
:100EB0000493974B1B681093049A109B13400233C2
:100EC0009B00924A13440433119300231793002389
:100ED000169300230F9304AB19461198FFF766FD94
:100EE0000346002B19D0894BD3F81834002B14D1AA
:100EF000864B5A68049B9A4205D8844B5B68834AA8
:100F00009360002385E1049A109B134002339B00F9
:100F10007E4A134404331193DDE70023159311E057
:100F2000049B5A1C0492109A1340159A920001A92E
:100F30000A44764902339B000B445B681360159B9F
:100F400001331593159B012BEAD99DF8043003F06A
:100F50000303DBB2022B40F09C80BDF80630C3F3E4
:100F600089139BB20D93BDF80630C3F389139BB26E
:100F7000502B28BF50239BB20C930C9BC3F3090347
:100F80009AB2BDF8063062F38F13ADF806300C9BB1
:100F900008330B939DF80430C3F3C203DBB20F9305
:100FA0000B995C4802F0E2FE1790179B002B00F0B3
:100FB000D380179802F06BFF01A9169B082217989F
:100FC00003F020F8169B08331693049BDA43109B1A
:100FD000134001339B000A930C9A0A9B9A4242D910
:100FE0000A9B002B08D0049A109B134002339B00ED
:100FF000464A1344043300E0474B08930A9B002BF6
:1010000002D00A9BDBB201E00C9BDBB28DF81F30F3
:101010000A9B002B01D0404B00E0002306930A9B63
:10102000002B06D00C9BDAB20A9BDBB2D31ADBB2E0
:1010300000E000238DF817309DF81F20169B0899BB
:10104000179802F0DFFF9DF81F30169A134416938D
:10105000069B002B16D09DF81720169B0699179813
:1010600002F0D0FF0EE0049A109B134002339B0065
:10107000264A134404330993169B0C9A099917982E
:1010800002F0C0FF0D9B03339A08049B13440493A2
:1010900062E09DF8043003F00303DBB2012B5BD167
:1010A000BDF80430C3F38313DBB2062B28BF06233D
:1010B000DAB2BDF8043062F38913ADF80430BDF83C
:1010C0000430C3F38313DBB202330E939DF8043074
:1010D000C3F3C203DBB20F930E9B9B0019460D486E
:1010E00002F044FE1790179B002B35D0179802F0A2
:1010F000CEFE01A9169B0822179802F083FF169BCB
:1011000008331693002315931DE000BF98010020BB
:1011100008000020EC5E0000A4010020049B5A1C83
:101120000492109A134002339B003C4A1344191D49
:10113000169B0422179802F065FF169B0433169342
:10114000159B01331593BDF80430C3F38313DBB251
:101150001A46159B9342E1D3179B002B39D02F4B96
:10116000D3F8103414932D4BD3F81834002B1BD024
:10117000179802F09BFE46E000238DF84F3014983C
:10118000FFF777FB0346002B02D001238DF84F3089
:101190009DF84F30002B03D017991498FFF73AFBB6
:1011A000149BDB681B681493149B002BE4D11798E5
:1011B00002F07CFE002000F093FC184BD3F81834AA
:1011C000002B02D1049B154A9360002000F091FC93
:1011D00019E0124BD3F81034129306E01298FFF77F
:1011E00033FB129BDB681B681293129B002BF5D11B
:1011F0000B4A0C4BD31ADB081B0443F002030A49C9
:101200001846FFF7E7FDFFF733FE034683F00103BF
:10121000DBB2184619B05DF804FB00BF980100204E
:10122000CC5E0000AC5E0000F45F000000B583B04F
:101230000C4BD3F8103401930A4B01221A7009E0C9
:101240000198FFF70DFB0198FFF7F2FA019BDB68AD
:101250001B680193019B002BF2D100BF00BF03B0BC
:101260005DF804FB9801002082B00190009100BF5E
:1012700002B0704710B584B003900291039BDB88E5
:10128000002B0AD0039BDB881A461F4B00931346A2
:101290001E4A1F49029800F0FFFD039B1B7A052B95
:1012A0002ED0039B5B7A002B12D0039B9B881A469F
:1012B000039B1B7A19461046FFF740FB03461A466C
:1012C000144B53F822301A461349029800F0E4FDFB
:1012D000039B1B6819460298FFF7C6FF039B1B7A06
:1012E0001A460E4B53F82240039B9B880021184658
:1012F000FFF704FB034622460949029800F0CCFDA3
:1013000000BF04B010BD00BF2860000038600000BE
:101310007060000020000020886000000C000020A9
:101320008C60000000B585B00390029113468DF8E3
:101330000730039B1B7A052B0FD0039B5B7A002B96
:1013400006D00D4B1B681A460C49029800F0A4FD0C
:101350000B49029800F0A0FD07E09DF80730002B34
:1013600003D00749029800F097FD029800F072FD43
:1013700000BF05B05DF804FB20000020886000007D
:101380009860000030B58BB00790069105920493E9
:101390000E9B1B7B8DF827300E9B00221A730E9933
:1013A0000498FFF767FF059B062B7FD801A252F830
:1013B00023F000BFD1130000DB130000EB1300008B
:1013C000FF1300001D1400004514000075140000F8
:1013D00007990E9800F060FD69E0069B1B681A46AD
:1013E00007990E9800F058FD61E0069B1A68069B6D
:1013F00004331B6807990E9800F04EFD57E0069BDA
:101400001A68069B04331968069B08331B6800930F
:101410000B4607990E9800F03FFD48E0069B1968BF
:10142000069B04331868069B08331B68069A0C3227
:1014300012680192009303460A4607990E9800F03D
:101440002BFD34E0069B1868069B04331C68069B42
:1014500008331B68069A0C32126806991031096825
:101460000291019200932346024607990E9800F0DC
:1014700013FD1CE0069B1C68069B04331D68069B3D
:1014800008331B68069A0C321268069910310968F5
:1014900006981430006803900291019200932B4645
:1014A000224607990E9800F0F7FC00E000BF0022EA
:1014B0000E990498FFF736FF0E9B9DF827201A73AC
:1014C00000BF0BB030BD00BF00B587B003900291E4
:1014D00001920093029B082B60D8009B1B7B8DF828
:1014E0001330009B00221A7300990198FFF7C2FE87
:1014F0000023059314E0059A029B9A4209D2039AAD
:10150000059B13441B781A462649009800F0C4FC3A
:1015100003E02549009800F0BFFC059B01330593CB
:10152000059B072BE7D92149009800F0B5FC002363
:10153000059326E0059A029B9A421BD2039A059BCB
:1015400013441B788DF812309DF812307E2B0AD888
:101550009DF81230184604F003FC0346002B02D01D
:101560009DF8123000E02E231A461149009800F031
:1015700093FC03E00F49009800F08EFC059B0133BB
:101580000593059B072BD5D9012200990198FFF7F8
:10159000C9FE009B9DF813201A7300E000BF07B03E
:1015A0005DF804FB9C600000A4600000A8600000DF
:1015B000AC600000B060000000B583B00190019BFA
:1015C0001B68184600F0E1F80346002B04D10B49D4
:1015D0004FF4F67000F098FA019B1B681F2B01D89E
:1015E000074B06E0019B1B6803F01F02019B1A607A
:1015F000044B184603B05DF804FB00BFB460000064
:10160000002584500028845000B585B0019008461C
:1016100011461A4603468DF803300B468DF802300A
:1016200013468DF8013001AB1846FFF7C5FF039054
:101630009DF803209DF802305B001A439DF80130AD
:101640009B001A439DF818301B0242EA03019DF8E3
:101650001C301B04019A1943039B803243F822106B
:1016600000BF05B05DF804FB00B585B00390002312
:101670000193002300930023012201210398FFF727
:10168000C3FF00BF05B05DF804FB00B585B0039053
:101690000B468DF80B309DF80B3000220192002292
:1016A0000092002200210398FFF7AEFF00BF05B0B3
:1016B0005DF804FB00B585B0019001AB1846FFF75B
:1016C0007BFF0390019B012202FA03F31946039862
:1016D00000F049F800BF05B05DF804FB00B585B027
:1016E000019001AB1846FFF767FF0390019B0122B1
:1016F00002FA03F31946039800F03EF800BF05B064
:101700005DF804FB00B585B0019001AB1846FFF70A
:1017100053FF0390039B5B680293029BDA43019B98
:10172000012101FA03F31A40039B9A60019B0122F5
:101730009A40029B1A40039BDA6000BF05B05DF837
:1017400004FB00B583B001900091009B002B03D1F6
:101750000198FFF7C3FF02E00198FFF7ABFF00BF5E
:1017600003B05DF804FB82B001900091019B009AE8
:101770009A6000BF02B0704782B001900091019B57
:10178000009ADA6000BF02B0704784B00190019BFC
:101790005B09029300230393029B002B03D0029B5F
:1017A000012B04D007E04FF0FF33039303E04FF623
:1017B000FF73039300BF019B03F01F030193039A80
:1017C000019B22FA03F303F00103002B14BF012352
:1017D0000023DBB2184604B07047000000B583B0A8
:1017E0000190019B032B03D90749472000F08CF996
:1017F000064A019B13441B7801211846FFF7A1FFFD
:1018000000BF03B05DF804FBE4600000206100004D
:1018100000B583B00023019305E00198FFF7DEFFD8
:10182000019B01330193019B032BF6D900BF00BF3D
:1018300003B05DF804FB000000B583B00190019B8C
:10184000032B03D907495F2000F05EF9064A019B8C
:1018500013441B781846FFF755FF00BF03B05DF82F
:1018600004FB00BFE46000002061000000B583B00D
:101870000023019309E0094A019B13441B78184691
:10188000FFF7F2FE019B01330193019B032BF2D979
:10189000FFF7BEFF00BF03B05DF804FB206100004E
:1018A00000B583B0002301930AE0094A019B134469
:1018B0001B7803211846FFF7E8FE019B01330193D3
:1018C000019B032BF1D900BF00BF03B05DF804FBFF
:1018D0002461000000B583B00190019B03F0010377
:1018E000002B01D0FFF7C2FF019B03F00203002B86
:1018F00001D0FFF7D5FF00BF03B05DF804FB000087
:1019000086B003900291019201238DF817309DF863
:101910001730204A039B13601E4A029B53601D4AE6
:10192000019B9360039B44F20102934212D0039BFC
:1019300044F20202934220D1019B164AD360154B18
:10194000DB681B68134A9361124BDB685B68114AC2
:10195000D36112E0019B0F4A13610E4B1B699B6818
:101960000C4A53610B4B1B691B680A4A9361094B74
:101970001B695B68074AD36100BF72B600BF00BF36
:101980009DF81730DBB2002BFAD162B600BF00BF62
:1019900006B07047B805002000B583B002900091F2
:1019A000019244F2010071466A4600F003F803B068
:1019B00000BD00BF30B58BB007900691059272B69E
:1019C00000BFFFF733FC00BFFFF760FA0346002BB0
:1019D000FAD1079B44F20102934216D0079B44F2CE
:1019E000020293423ED1059B0993294A294BD31AFF
:1019F000DB081B0443F00100099B5B681A46099B46
:101A00001B682549FFF705FA39E0059B0893204A32
:101A1000204BD31ADB081B0443F00104089B9D688C
:101A2000089B9B68184602F017FD03461846089B62
:101A30005B681946089B1B68069A02920193009105
:101A400003462A4615492046FFF7F7F9104A114B7D
:101A5000D31ADB081B0443F0010311491846FFF7B2
:101A6000B9F90CE00A4A0B4BD31ADB081B0443F00C
:101A70000103069A0B491846FFF7BAF900BF00BEEA
:101A8000059A06990798FFF73BFF00BF0BB030BDE2
:101A9000CC5E0000AC5E00002861000044610000E4
:101AA0006C6100008061000072B600BF034B1B68D0
:101AB0000133024A136000BF704700BFD805002001
:101AC000064B1B68013B054A1360044B1B68002B47
:101AD00001D162B600BF00BF704700BFD80500202B
:101AE00000B583B00190FFF7DFFF00BF03B05DF8E2
:101AF00004FB00B583B003468DF80730FFF7E0FF25
:101B000000BF03B05DF804FB00B585B0034600914B
:101B1000ADF80630BDF806300293009B039302AB8C
:101B20001A46002144F20200FFF744FF00BF05B04F
:101B30005DF804FB10B487B001900091019B009AFE
:101B400053E8004F104643E8000191F0000FF7D131
:101B5000059404900391059B184607B05DF8044B6B
:101B6000704710B487B001900091019B009A53E830
:101B7000004F44EA020043E8000191F0000FF6D163
:101B8000059404900391049B184607B05DF8044B3C
:101B9000704710B487B001900091019B009A53E800
:101BA000004F04EA020043E8000191F0000FF6D173
:101BB000059404900391059B184607B05DF8044B0B
:101BC000704710B487B001900091019B009A53E8D0
:101BD000004F04EB020043E8000191F0000FF6D142
:101BE000059404900391049B184607B05DF8044BDC
:101BF000704710B487B001900091019B009A53E8A0
:101C0000004FA4EB020043E8000191F0000FF6D171
:101C1000059404900391049B184607B05DF8044BAB
:101C2000704700B583B0019001210198FFF799FF3B
:101C30000346184603B05DF804FB00B583B001907D
:101C400000210198FFF7A5FF0346184603B05DF891
:101C500004FB000000B583B001900B468DF8033003
:101C6000019B002B03D10849E820FFF74DFF019BA2
:101C7000DA689DF803300199098A01FB03F31344E4
:101C8000184603B05DF804FB9861000000B583B00E
:101C900001900091019B002B03D10849F520FFF72B
:101CA00033FF009B019AD2689B1A019A128AB3FBF8
:101CB000F2F3DBB2184603B05DF804FB9861000054
:101CC00000B585B00190019B002B01D10E234CE0A3
:101CD000019B1B68002B03D12649FF20FFF714FF4F
:101CE000019B5B68002B04D122494FF48070FFF701
:101CF0000BFF019B9B68002B04D11E4940F2011091
:101D0000FFF702FF019BDB68002B04D119494FF458
:101D10008170FFF7F9FE019B1B8A002B04D1154946
:101D200040F20310FFF7F0FE019B9A68019B5B688D
:101D3000D31A8DF80F30019B1B68019A52681A6004
:101D400007E0019B1A681368591C11609DF80F2069
:101D50001A709DF80F305A1E8DF80F20002BF0D10D
:101D6000019B1B6800221A710023184605B05DF81C
:101D700004FB00BF9861000000B585B00190019B95
:101D8000002B04D11C494FF49270FFF7BDFE0023D5
:101D900003930020FFF7A4FE019B1B681A68019BB8
:101DA0005B689A421FD9019B1B681A68013A1A6046
:101DB0001B681B7819460198FFF74CFF0390019BA5
:101DC0009A68019B1B681B68D31A8DF80B30019B26
:101DD0001B681B799DF80B209A4204D9019B1B6854
:101DE0009DF80B201A710020FFF783FE039B184615
:101DF00005B05DF804FB00BF9861000010B584B029
:101E000001900091019B002B04D1114940F2471031
:101E1000FFF77AFE009B002B04D10D494FF4A4700C
:101E2000FFF772FE009B03930020FFF759FE019B12
:101E30001B681C68621C1A6003990198FFF726FF53
:101E4000034623700020FFF754FE00BF04B010BD0E
:101E50009861000000B583B00190019B002B03D175
:101E60000C493120FFF750FE019B9B68002B0CD0E2
:101E7000019B5B69019A1069019A1168019A926845
:101E80009847019B00229A6000E000BF03B05DF814
:101E900004FB00BFE06100000EB400B584B0019007
:101EA000019B002B03D118494220FFF72DFE019B17
:101EB0005B69002B03D114494320FFF725FE019BEA
:101EC0001B68002B03D110494420FFF71DFE019B26
:101ED0005B68002B03D10C494520FFF715FE059BDD
:101EE000002B0AD00023039306AB039303AB1A46DF
:101EF0000599019800F0B8F900E000BF04B05DF862
:101F000004EB03B0704700BFE061000000B583B090
:101F100001900B468DF803309DF803300A2B03D156
:101F20000D210198FFF7F2FF019B1A68019B9B6846
:101F3000581C0199886013449DF803201A70019B76
:101F40009A68019B5B689A4202D30198FFF782FF6F
:101F500000BF03B05DF804FB00B587B003900291A9
:101F60000192009300230593009B03F00103002BD3
:101F700024D00BE0029B01330293059B01330593B0
:101F80009DF8133019460398FFF7C0FF029B1B789A
:101F90008DF813309DF81330002BEBD106E0019B38
:101FA000013B019320210398FFF7B0FF019A059BA5
:101FB0009A422ED9019B002BF1D12AE0029B002BE3
:101FC0000BD0029803F02DFF059006E0019B013B2A
:101FD000019320210398FFF799FF019A059B9A42EC
:101FE0000FD9019B002BF1D10BE0029B013302932F
:101FF000059B013305939DF8133019460398FFF7AD
:1020000085FF029B1B788DF813309DF81330002B51
:10201000EBD100BF07B05DF804FB000000B589B04C
:102020000390029101920093029B07930123069370
:1020300007E0079A019BB2FBF3F30793069B01337A
:102040000693079A019B9A42F3D2009A069B9A4202
:1020500001D9009B06930B9B03F00103002B22D1B7
:102060000A9B002B1FD00B9B03F00203002B06D012
:10207000009B002B03D130238DF8173002E0202382
:102080008DF8173008E00A9B013B0A939DF8173042
:1020900019460398FFF73AFF0A9B002B03D0069AD4
:1020A0000A9B9A42EFD301230793009B012B03D98C
:1020B000009B013B009309E0029A079BB2FBF3F3FC
:1020C0000493049A019B9A4200D205E0079B019A6F
:1020D00002FB03F30793E8E7029A079BB2FBF3F3D3
:1020E0000493049B079A02FB03F3029AD31A029308
:1020F000154A049B13441B7819460398FFF706FF03
:10210000079A019BB2FBF3F30793079B002BE3D1E4
:102110000B9B03F00103002B11D00A9B002B0ED068
:1021200006E00A9B013B0A9320210398FFF7EEFE8D
:102130000A9B002B03D0069A0A9B9A42F1D300BF58
:1021400009B05DF804FB00BF6462000000B589B00F
:102150000590049103920293049B002BB8BF5B424D
:1021600006930123079307E0039B069A92FBF3F380
:102170000693079B01330793039B069A9A42F3DA6F
:10218000029A079B9A4201D9029B07930A9B002B54
:102190000AD0049B002B04DB0B9B03F00403002BF1
:1021A00002D00A9B013B0A930B9B03F00203002B16
:1021B00002D0029B002B16D00B9B03F00103002BD7
:1021C00011D10A9B002B0ED006E00A9B013B0A931B
:1021D00020210598FFF79AFE0A9B002B03D0079A4F
:1021E0000A9B9A42F1D3049B002B07DA049B5B42C3
:1021F00004932D210598FFF789FE08E00B9B03F05F
:102200000403002B03D02B210598FFF77FFE0B9BC7
:1022100003F00203002B19D00B9B03F00103002BEA
:1022200014D1029B002B11D10A9B002B0ED006E08B
:102230000A9B013B0A9330210598FFF767FE0A9B32
:10224000002B03D0079A0A9B9A42F1D304990B9B67
:1022500001930A9B0093029B039A0598FFF7DEFE09
:1022600000BF09B05DF804FB00B58FB00590049184
:102270000392059B002B04D1AD4940F25220FFF799
:1022800043FC059B5B69002B04D1A9494FF41570F1
:10229000FFF73AFC059B1B68002B04D1A44940F2D0
:1022A0005520FFF731FC059B5B68002B04D1A0494A
:1022B00040F25620FFF728FC049B002B00F093818E
:1022C000049B1B788DF83730049B013304939DF8F1
:1022D0003730002B00F07E819DF83730252B40F001
:1022E0006D8100230A9301230C93049B1B788DF8C6
:1022F00037309DF83730302B0DD0302B1BDC2B2B9B
:1023000011D02D2B17D10A9B43F001030A93049B94
:102310000133049312E00A9B43F002030A93049BE7
:10232000013304930AE00A9B43F004030A93049BDD
:102330000133049302E000230C9300BF0C9B002B9D
:10234000D3D1002309939DF837302A2B0CD1039B5E
:102350001B68191D039A11601B68099A134409939D
:10236000049B013304931AE0049B1B788DF83730EB
:102370009DF837302F2B12D99DF83730392B0ED8D6
:10238000049B01330493099A13469B0013445B009A
:102390001A469DF837301344303B0993D3E70023A6
:1023A0000B93049B1B788DF837309DF837302E2B1C
:1023B0001DD1049B01330493049B1B788DF83730A7
:1023C0009DF837302F2B12D99DF83730392B0ED886
:1023D000049B013304930B9A13469B0013445B0048
:1023E0001A469DF837301344303B0B93E4E7049BC7
:1023F0001B788DF837309DF837306C2B03D09DF863
:102400003730682B07D1049B01330493049B1B785E
:102410008DF83730EFE79DF83730252B00F0C4807A
:10242000252BC0F2C680782B00F3C380582BC0F256
:10243000C080583B202B00F2BC8001A252F823F050
:1024400035250000B3250000B3250000B3250000AA
:10245000B3250000B3250000B3250000B32500001C
:10246000B3250000B3250000B3250000C5240000FB
:10247000E7240000B3250000B3250000B3250000C9
:10248000B3250000E7240000B3250000B3250000B9
:10249000B3250000B3250000B3250000B3250000DC
:1024A00075250000B3250000B32500005925000064
:1024B000B32500000B250000B3250000B325000064
:1024C00035250000039B1B68191D039A11601B68CA
:1024D0000C930C9B8DF81F309DF81F301946059802
:1024E000FFF714FD66E0039B1B68191D039A11603A
:1024F0001B680C930A9B0193099B00930B9B0A2278
:102500000C990598FFF722FE54E0039B1B68191DE8
:10251000039A11601B680C930C990A9B0193099B09
:1025200000930B9B0A220598FFF778FD42E000BF5D
:1025300020620000039B1B68191D039A11601B6831
:102540000C930C990A9B0193099B00930B9B1022FF
:102550000598FFF763FD2DE0039B1B68191D039A87
:1025600011601B6808930A9B099A08990598FFF760
:10257000F3FC1FE0039B1B68191D039A11601B6885
:102580000C9330210598FFF7C1FC78210598FFF7DF
:10259000BDFC0C990023019308230093082310220B
:1025A0000598FFF73BFD05E025210598FFF7AEFCF8
:1025B00000E000BF049B0133049305E09DF8373031
:1025C00019460598FFF7A2FC049B1B78002B7FF4AB
:1025D00077AE00E000BF059B1B7B002B04D0059865
:1025E000FFF738FC00E000BF0FB05DF804FB00BF50
:1025F00082B003468DF807309DF90730002B0CDBC5
:102600009DF8073003F01F0205499DF907305B096B
:10261000012000FA02F241F8232000BF02B0704707
:1026200000E100E082B003468DF807309DF90730E5
:10263000002B13DB9DF8073003F01F0209499DF9B9
:1026400007305B09012000FA02F2203341F8232011
:10265000BFF34F8F00BFBFF36F8F00BF00BF02B04B
:10266000704700BF00E100E000B583B003468DF87D
:1026700007309DF907301846FFF7BAFF00BF03B0D7
:102680005DF804FB00B583B003468DF807309DF973
:1026900007301846FFF7C6FF00BF03B05DF804FB24
:1026A00082B001900B468DF8033013468DF802304E
:1026B0009DF802209DF80330803301990B4442F0CD
:1026C00000421A6000BF02B0704782B001900B4612
:1026D0008DF8033013468DF802309DF802209DF8E6
:1026E0000330803301990B4442F000421A6000BF6E
:1026F00002B0704782B001900B46ADF8023013462D
:102700008DF801309DF80120BDF802308033019929
:102710000B4442F000421A6000BF02B0704782B022
:1027200001900B468DF803309DF80320019B134464
:102730001A460123136000BF02B0704700B583B092
:102740000190019B1B6808211846FFF7E8FF00BFB6
:1027500003B05DF804FB82B001900B46ADF8023087
:10276000BDF80230019A1344184602B0704782B097
:1027700001900B46ADF8023013468DF801309DF8FC
:102780000120BDF80230803301990B4442F0004231
:102790001A6000BF02B0704782B003468DF8073060
:1027A0009DF807300133DBB2184602B0704700B520
:1027B00085B00190019B1B681846FFF7DDFA0346C0
:1027C0000293029B002B01D100231AE0019B5B685E
:1027D00002AA1146184601F0BDFC0390039B002B92
:1027E00001D000230DE0019BDB69DA680132DA6079
:1027F000019B98690299019B5B6A1A4601F0E4F813
:102800000123184605B05DF804FB000000B597B041
:1028100001900091019B0F93009B1B78042B00F209
:10282000D38001A252F823F0B528000063280000ED
:102830003D280000552900008129000001238DF862
:102840002C30009B5B680C93009B9B680D930F9B47
:10285000DB691B680F9AD26952680BA9104698472A
:10286000C5E00F9BDB6993F82630002B40F0B88061
:102870000F98FFF79CFF034683F00103DBB2002BA8
:1028800000F0B0800F9BDB6993F82530002B05D05A
:102890000F9BDB69012283F82620A3E0002312931B
:1028A000129B002B40F09E80534AE6210020FFF748
:1028B00073F897E0009B9A680F9BDB695B69D31AFA
:1028C0001193119B002B39D00F9BDB6919690F9B6A
:1028D000DB69119A0A441A6100238DF82030009BAD
:1028E0005A680F9BDB695B6913440993119B0A9338
:1028F0000F9BDB6900225A610F9B58680F9BDB69B5
:1029000018330022194601F0D5FC1490149B002BBB
:102910000AD000231393139B002B05D1364A40F2B3
:102920000B110020FFF738F80F9BDB691B680F9A2B
:10293000D269526808A91046984755E000231093C1
:10294000109B002B50D12C4A4FF48A710020FFF7C6
:1029500023F849E005AB00221A605A609A6002230E
:102960008DF81430009B1B798DF818300F9BDB69B4
:102970001B680F9AD269526805A91046984736E03D
:10298000009B5A680F9BDB695B69D31A0E930F9B00
:10299000DB6919690F9BDB690E9A0A441A6102AB65
:1029A00000221A605A609A6003238DF80830009B59
:1029B0005B6803930F9BDB691B680F9AD2695268AF
:1029C00002A91046984712E000231593159B002B8F
:1029D0000CD1094A4FF499710020FEF7DDFF05E0A4
:1029E00000BF04E000BF02E000BF00E000BF00BF86
:1029F00017B05DF804FB00BF8462000000B589B029
:102A00000190019B9B69DB681B0B5BB21846FFF7CB
:102A100039FE019B9B695B68D3F84C350793019B9A
:102A2000DB691B69079A9A4227D9019BDB691B69FD
:102A3000079AD31A069300238DF80C30019BDB69AB
:102A40009A69019BDB695B6913440493069B0593B8
:102A5000019BDB695969019BDB69069A0A445A614B
:102A6000019BDB69079A1A61019BDB691B68019A6C
:102A7000D269526803A910469847019B9B69DB689D
:102A80001B0B5BB21846FFF7EFFD00BF09B05DF806
:102A900004FB00B583B003460091ADF80630009802
:102AA000FFF7ACFF00BF03B05DF804FB00B597B0C3
:102AB0000390029101920093029B5B7F072B01D14F
:102AC00007235EE1039BDB6993F82730002B01D0DD
:102AD000082356E1039BDB69019A1A60039BDB69BB
:102AE00000221A61039BDB6900229A61039BDB6968
:102AF0000022DA61039BDB6900225A61039BDB69D8
:102B00000022DA60039BDB69009A5A60039BDB6951
:102B1000029A12691A62039BDB69002283F826205D
:102B2000029B1A7D039BDB69012A0CBF0122002254
:102B3000D2B283F82520039B9B68002B2ED0934AAA
:102B400006AB92E80300186004331980029B5B7F98
:102B50001846FFF721FE03468DF81A300023ADF822
:102B60001830039B9868039B1A6A06AB194601F05C
:102B700037FF1390139B002B01D0032301E1039B2C
:102B80009868029B1B695A090123002101F09AFFF2
:102B90001390139B002B43D00323F2E0039BDB68CD
:102BA000002B30D000238DF8103000238DF8113029
:102BB00000238DF8123006238DF81330002305937F
:102BC00004238DF81030039B0593029B5B7F18460E
:102BD000FFF7E2FD03468DF81330039BDB6804A981
:102BE0006B4A184602F0D0F91390139B002B01D0CA
:102BF0000323C6E0039BD868029B1A6901230021C6
:102C000002F0E0FA0CE000231493149B002B05D192
:102C1000604A4FF4F2710020FEF7BEFE0323B0E0DD
:102C20000023159310E0039BDA69159B08331344C6
:102C3000184602F07DFB1390139B002B01D0032359
:102C40009FE0159B01331593159B012BEBD9039B3B
:102C50009B69D868039BDB691B7A1A464FF4847121
:102C6000FFF785FD039B9B681868039BDB691B7A54
:102C70001A460021FFF729FD039B9B681868039BF8
:102C8000DB691B7A1A460821FFF71FFD039B9B692E
:102C90005868039BDB691B7A1A460821FFF700FD81
:102CA000039B9B681868039BDB695B7A1A464FF4A9
:102CB000A071FFF71FFD039B9B681868039BDB69EE
:102CC0005B7A1A460421FFF700FD039B9B69586855
:102CD000039BDB695B7A1A464C21FFF7E1FC029B00
:102CE0005B680893029B1B680993029B9B680A938D
:102CF000029BDB680B93039B9B69DB684FF4887135
:102D00001846FFF728FD03460C9300230D9300237C
:102D10000E9300230F93029B1B7D8DF84030029B86
:102D20005B7D8DF84130029B9B691193029B5B7F19
:102D30008DF84830029B1B7F8DF84930039B9869C2
:102D400008A9039B144A00F07BFC1390139B002BF3
:102D500001D0139B15E0039B1B681846FEF7B0FFDC
:102D60001390139B002B01D0139B0AE0039B5B681D
:102D7000184601F033FB039BDB69012283F827200F
:102D8000139B184617B05DF804FB00BFD862000023
:102D9000932A0000846200000D28000000B58BB06B
:102DA0000190019B1B681846FEF7E6FF0990019B06
:102DB000DB69DA680132DA60099B002B0AD1002353
:102DC0000893089B002B05D1334A40F25E21002076
:102DD000FEF7E2FD019B9B68002B05D0019B9B68E1
:102DE0001846FFF7ABFC08E0019BDB68002B04D022
:102DF000019BDB68184602F0C3F9019BDB691B7A73
:102E0000184602F0FBFA0790079B002B0CBF01232A
:102E10000023DBB20693069B002B05D11E4A40F22D
:102E20006F210020FEF7B8FD019BDB695B7A184635
:102E300002F0E4FA0790079B002B0CBF012300234C
:102E4000DBB20593059B002B05D1134A40F271219B
:102E50000020FEF7A1FD019BDB69099A9A61019BA5
:102E60009869019B5A6A0023099900F04DFD04906E
:102E7000049B002B0CBF01230023DBB20393039BB5
:102E8000002B05D1044A40F277210020FEF784FD93
:102E900000BF0BB05DF804FB8462000000B585B094
:102EA000039002910192039B9B69019A0299184633
:102EB00000F09EFC0346184605B05DF804FB0000D8
:102EC00000B589B0039002910192039BDB69D96937
:102ED000039BDB69019A0A44DA61039BDB69DA69C7
:102EE000039B5B6A9A4241D1039BDB69DB69019AD0
:102EF000D31A029A13440293039BDB690022DA611E
:102F0000039B1B6802991846FEF778FF039BDB6959
:102F1000DA68013ADA60039BDB69DB68002B0ADAC6
:102F200000230793079B002B05D11B4A40F29321F6
:102F30000020FEF731FD039BDB6993F82630002B60
:102F400026D00398FFF733FC03468DF81B309DF81D
:102F50001B30002B04D1104940F29A20FEF7D4FD1B
:102F6000039BDB69002283F8262011E0039BDB69C9
:102F7000DA69039B5B6A9A420AD900230593059B91
:102F8000002B05D1044A40F2A1210020FEF704FDE8
:102F900000BF09B05DF804FB8462000082B0034604
:102FA0008DF807309DF90730002B0CDB9DF80730BA
:102FB00003F01F0205499DF907305B09012000FA63
:102FC00002F241F8232000BF02B0704700E100E0A8
:102FD00082B003468DF807309DF90730002B0DDBDA
:102FE0009DF8073003F01F0206499DF907305B0981
:102FF000012000FA02F2603341F8232000BF02B042
:10300000704700BF00E100E082B0034600918DF8F8
:1030100007309DF90730002B0ADB009BDAB20C4920
:103020009DF907305201D2B20B4483F800230BE024
:10303000009BDAB207499DF8073003F00F03043B09
:103040005201D2B20B441A7600BF02B0704700BFE3
:1030500000E100E000ED00E082B00190019B1B0B5D
:103060005BB2184602B0704782B001900B46ADF8D3
:103070000230BDF80230019A134400221A6000BFEA
:1030800002B0704782B001900B46ADF80230BDF837
:103090000230019A13441B68002B14BF0123002344
:1030A000DBB2184602B0704782B001900091019BDC
:1030B000009AC3F8042300BF02B0704782B00190A9
:1030C0000B468DF8033013468DF802309DF8022030
:1030D0009DF80330803301990B4442F000421A609E
:1030E00000BF02B0704782B001900B46ADF80230CD
:1030F00013468DF801309DF80120BDF80230803371
:1031000001990B4442F000421A6000BF02B07047C0
:1031100084B00190019BD3F880340393019B039A00
:10312000C3F88024039B184604B0704782B0019016
:10313000019B0822C3F8002500BF02B0704784B08D
:10314000039002910192039B029AC3F80C25039B02
:10315000019AC3F8142500BF04B0704782B00190F3
:103160000B468DF803309DF80330019A1344012279
:103170001A6000BF02B0704782B001900B468DF814
:10318000033013468DF802309DF803209DF802307D
:103190001343DBB21A46019BC3F86C2500BF02B093
:1031A000704782B001900091019B009AC3F82425DA
:1031B00000BF02B0704784B0039002910192029A5E
:1031C000039BC3F84425039B019AC3F8482500BF1D
:1031D00004B0704782B00190019BD3F84C3518467B
:1031E00002B0704784B0039002910192029A039B4F
:1031F000C3F83425039B019AC3F8382500BF04B0F7
:10320000704782B001900B468DF8033013468DF85D
:1032100002309DF802209DF80330803301990B4461
:1032200042F000421A6000BF02B0704782B00190C5
:103230000B468DF803309DF80320019B02F5A87220
:1032400053F82230184602B0704700B583B00190A1
:103250000B468DF80330019B1B689DF80320114637
:103260001846FFF7E3FF0346184603B05DF804FB7A
:1032700000B583B00190019B1B68184600F093F8DD
:103280000346002B04D10B494FF4F670FEF73CFCCB
:10329000019B1B681F2B01D8074B06E0019B1B6895
:1032A00003F01F02019B1A60044B184603B05DF83F
:1032B00004FB00BFE0620000002584500028845019
:1032C00000B585B00190084611461A4603468DF8B0
:1032D00003300B468DF8023013468DF8013001ABF8
:1032E0001846FFF7C5FF03909DF803209DF80230B4
:1032F0005B001A439DF801309B001A439DF818307B
:103300001B0242EA03019DF81C301B04019A194379
:10331000039B803243F8221000BF05B05DF804FB28
:1033200000B585B003900023019300230093002390
:10333000012201210398FFF7C3FF00BF05B05DF82C
:1033400004FB00B585B003900B468DF80B309DF85B
:103350000B300022019200220092002200210398EB
:10336000FFF7AEFF00BF05B05DF804FB00B585B008
:10337000019001AB1846FFF77BFF0390019B0122F0
:1033800002FA03F31946039800F004F800BF05B0F1
:103390005DF804FB82B001900091019B009A9A6055
:1033A00000BF02B0704784B00190019B5B0902939B
:1033B00000230393029B002B03D0029B012B04D01C
:1033C00007E04FF0FF33039303E04FF6FF730393DF
:1033D00000BF019B03F01F030193039A019B22FA94
:1033E00003F303F00103002B14BF01230023DBB21E
:1033F000184604B07047000000B585B00190019BED
:103400001B78184602F020F80390039B002B03D092
:103410000B49BA20FEF778FB019B1B78184601F098
:10342000BBFF0390039B002B03D00549BC20FEF794
:103430006BFB019B20221A7000BF05B05DF804FBF6
:103440001C63000000B585B001900023039310E0D9
:10345000019B1A68039B13441B781F2B06D8019B02
:103460001A68039B13441846FFF7C6FF039B0133FA
:103470000393039B082BEBDD00BF00BF05B05DF895
:1034800004FB000000B585B001900023039319E010
:10349000019B1A68039B13441B781F2B0FD8019BB9
:1034A0001A68039B13441B78184601F0A7FF02908B
:1034B000029B002B03D00749F020FEF725FB039B5E
:1034C00001330393039B072BE2DD00BF00BF05B070
:1034D0005DF804FB1C63000000B585B00190082373
:1034E00003931AE0019B1A68039B13441B781F2B5C
:1034F00010D8019B1A68039B13441B78184601F0EF
:103500007DFF0290029B002B04D0084940F213106B
:10351000FEF7FAFA039B01330393039B082BE1DDCB
:1035200000BF00BF05B05DF804FB00BF1C630000D6
:1035300000B585B00190082303931AE0019B1A6837
:10354000039B13441B781F2B10D8019B1A68039B05
:1035500013441B78184601F077FF0290029B002B62
:1035600004D0084940F22310FEF7CEFA039B013342
:103570000393039B082BE1DD00BF00BF05B05DF89E
:1035800004FB00BF1C63000000B587B001900091F0
:103590000023059308E0019B1A68059B1344202231
:1035A0001A70059B01330593059B082BF3DD00235F
:1035B000049302E0049B01330493049B012BF9DD87
:1035C000019B1B680533184601F0B2FE0390039B74
:1035D000002B1FD1019BD868019B1B685B791A46A1
:1035E0004FF48871FFF77FFD019BD868019B1B6832
:1035F0005B791A460021FFF761FD019B5868019B2A
:103600001B685B791A464021FFF7FBFD009B5B6955
:10361000002B00E000BF039B002B01D1039B03E0C4
:103620000198FFF70FFF039B184607B05DF804FBF6
:1036300082B003460091ADF8063000BF02B070477B
:1036400000B58BB00390029101920093039BDB685D
:103650001846FFF701FD03468DF82730039B1B68D2
:1036600093F83C30002B01D00823B4E0039B1B6887
:10367000019A5A62039B1B6800229A61039B1B6894
:103680000022DA61039B1B6800221A62039B1B68FD
:103690000022DA60039B1B68009A5A63039B1B6835
:1036A000FF2283F83A20039BDB684D4A934214BF04
:1036B00001230023DBB219464A4A039B42F821301A
:1036C000029B1B681846FFF751FE029B1B681846B9
:1036D000FFF726FE029B5A68029B93F82930002BC5
:1036E00001D0032300E0002319461046FFF729FE0E
:1036F000039BDA68029B5B6A19461046FFF751FD8F
:10370000039BD868029B93F82110029B93F820300A
:103710001A46FFF731FD039BD868029B1968029B8C
:103720005B681A46FFF70BFD029B93F82030012BD4
:1037300001D107234FE0039BDB682B491846FFF7B5
:10374000B3FC029B93F828301A469DF927301146A6
:103750001846FFF759FC9DF927301846FFF738FC4B
:103760009DF927301846FFF719FC039BDB681846C4
:10377000FFF7DCFC00238DF8183000238DF819309A
:1037800000238DF81A3006238DF81B300023079391
:1037900001238DF8193003238DF81A30039B04336D
:1037A00006A9124A184601F0EFFB0890089B002B6F
:1037B00001D003230FE002990398FFF7E5FE08907C
:1037C000089B002B01D0032305E0039B1B6801220B
:1037D00083F83C20002318460BB05DF804FB00BFC3
:1037E00000800050DC050020100348003136000046
:1037F00000B587B0039002910192039B1B68DB68C0
:10380000002B01D0112379E0039B1B68029ADA6038
:10381000039B1B68019A1A61039B1B6800225A6173
:10382000019BB3F5803F07D2019BADF81630039B97
:103830001B6800221A8721E0019B03F57F43FE33BA
:10384000304AA2FB0323DB0B0493019A049BB2FBD7
:10385000F3F2039B1B6892B21A87039B1B68198FB4
:10386000039B1B681B8F1A46019BB3FBF2F000FB06
:1038700002F29B1A9BB20B44ADF81630039BDB6837
:10388000BDF8162002991846FFF795FC039BDB68EC
:103890004FF4A8711846FFF7E7FB039BDB6808218C
:1038A0001846FFF75BFC019BB3F5803F25D300BFB3
:1038B000039BDB684FF4A8711846FFF7E3FB034650
:1038C00083F00103DBB2002BF2D1039BDB684FF4E2
:1038D000A8711846FFF7C8FB0398FFF7FDFD039B8F
:1038E000D868039B1B68DA68BDF81630D118039BB3
:1038F0001B681B8F1A46FFF75EFC0023184607B0B3
:103900005DF804FB0180008000B585B00390029152
:1039100001928DF80330019BB3F5803F04D3294910
:1039200040F2B320FEF7F0F8039B1B689B69002B65
:1039300001D0112342E0039B1B68019A1A63029B8A
:10394000002B0AD0039B1B68029A9A61039BDB68D9
:10395000019A02991846FFF745FC039B0433184669
:1039600001F0E0FB039B0433184601F009FC039BC4
:103970001B6800229A62039B1B680022DA62039B89
:10398000DB684FF488711846FFF76EFB039BDB681A
:103990004FF4A6711846FFF767FB0398FFF772FD17
:1039A0009DF8033083F00103DBB2002B05D0039BAD
:1039B000DB6800211846FFF7D1FB0023184605B04D
:1039C0005DF804FB1C63000000B585B00390029114
:1039D0000192039B1B68DB69002B0BD1039B1B68C7
:1039E000029ADA61039BDB68019A02991846FFF795
:1039F000F9FB03E0039B1B68029A1A6200BF05B043
:103A00005DF804FB00B59BB00190019BDB684FF4AF
:103A100084711846FFF736FB0346002B06D0019B46
:103A2000DB684FF484711846FFF71EFB019BDB68CF
:103A30004FF492711846FFF725FB0346002B20D068
:103A4000019BDB684FF492711846FFF70DFB0EAB3C
:103A500000221A605A609A6003238DF83830019B67
:103A6000DB681846FFF754FB0346DBB28DF83C30A9
:103A7000019B1B685B6A019A1268526B0EA9104683
:103A80009847019BDB684FF4A6711846FFF7FAFAD6
:103A90000346002B17D0019BDB684FF4A671184634
:103AA000FFF7E2FA0BAB00221A605A609A6001231A
:103AB0008DF82C30019B1B685B6A019A1268526B6F
:103AC0000BA910469847019BDB684FF48871184694
:103AD000FFF7D8FA0346002B00F09B80019BDB68C0
:103AE0004FF488711846FFF7BFFA019B0433002199
:103AF0001846FFF7AAFB1590019B043301211846D5
:103B0000FFF7A3FB1490019B1B689B6A159AD31ABD
:103B10001993019B1B68DB6A149AD31A1893019BB3
:103B20001B68159A9A62019B1B68149ADA62199BAA
:103B3000002B02D1189B002B6BD0019B1B681B6BC9
:103B4000199A934228BF13461793199A179BD31AB1
:103B5000169300238DF82030019B1B689B69099305
:103B6000179B0A93019B1A68019B1B68D2699A6193
:103B7000019B1B680022DA61019B1B681B6A002BFA
:103B800014D0019B1A68019B1B68126ADA61019BC1
:103B90001B6800221A62019BD868019B1B68D969C7
:103BA000019B1B681B6B1A46FFF71CFB019B1B68E4
:103BB0005B6A019A1268526B08A910469847169BD7
:103BC000002B09D1019B1B681B6B199A9A4220D1CB
:103BD000159A149B9A421CD105AB00221A605A60B8
:103BE0009A6004238DF81430169B0693019B1B6882
:103BF0005B6A019A1268526B05A910469847019BAF
:103C00001A68019B1B68D2699A61019B1B6800229C
:103C1000DA61019BDB684FF4AC711846FFF732FAAA
:103C20000346002B1ED0019BDB684FF4AC71184695
:103C3000FFF71AFA02238DF80830019B1B68DB6836
:103C40000393019B1B681B690493019B1B68002263
:103C5000DA60019B1B685B6A019A1268526B02A9C9
:103C600010469847019BDB684FF490711846FFF7A8
:103C700009FA0346002B68D0019BDB684FF4907172
:103C80001846FFF7F1F9019BDB681846FFF7A2FA27
:103C90001390019B1B685969019B1B68139A0A4486
:103CA0005A61019B1B685A69019B1B681B699A42F8
:103CB0000DD1019BDB684FF4AC711846FFF7D4F9C6
:103CC000019BDB680C211846FFF748FA3DE0019B99
:103CD0001B681A69019B1B685B69D31A1293129BBC
:103CE000B3F5803F03D20198FFF722FC2DE0019B42
:103CF0001B68DA68019B1B685B6901990968098F79
:103D00000B4413441193019BDB684FF4A8711846D0
:103D1000FFF7B8F9034683F00103DBB2002B04D0B0
:103D20000C4940F2A330FDF7EFFE019BDB684FF436
:103D3000A8711846FFF798F9019BD868019B1B688A
:103D40001B8F1A461199FFF736FA00BF1BB05DF8BA
:103D500004FB00BF1C63000008B5034B1B6818463A
:103D6000FFF750FE00BF08BDDC05002000B58BB09A
:103D700001900091019B1B8A043B0793009A079BCB
:103D80001344DA1C079BB2FBF3F38DF81B30019848
:103D9000FDF7F2FF0590059B002B01D1002338E0D1
:103DA000059B00221A71059B01225A71079B9AB24A
:103DB000059BDA80059B09939DF81B30013B04931A
:103DC000099B019A1A60002308931DE00198FDF7F2
:103DD000D3FF0390039B002B0ED0059B5B7901332F
:103DE000DAB2059B5A71099B039A1A60039B019AE8
:103DF0001A60039B099304E0059800F00EF8002375
:103E000007E0089B01330893089A049B9A42DDD38C
:103E1000059B18460BB05DF804FB00B58BB0019014
:103E2000019B0793079B5B798DF81B30019B0893DF
:103E30009DF81B30013B05930023099305E0089B87
:103E40001B680893099B01330993099A059B9A42C1
:103E5000F5D3089B1B680493019B089300230993E7
:103E60000BE0089B1B68039308990498FDF7C6FFB5
:103E7000039B0893099B013309939DF81B30099A12
:103E80009A42EED300BF00BF0BB05DF804FB00B553
:103E900085B00190019B0393039B043301211846D5
:103EA000FDF78FFE00BF05B05DF804FB00B587B0DD
:103EB0000190019B0593059B043301211846FDF7F2
:103EC00098FE0346039303AB0493049B1B78002BDB
:103ED00002D10198FFF7A1FF00BF07B05DF804FB16
:103EE00000B591B00390029101920093039B002BC7
:103EF00003D14349B620FDF707FE039B0993039BBB
:103F00000F93099BDB881A46099B5B7902FB03F33D
:103F1000043B0893009A089B9A4203D33849C42073
:103F2000FDF7F2FD099BDB880793009B1A1D079B99
:103F3000B2FBF3F30E93009B0433079AB3FBF2F248
:103F4000079901FB02F29B1A0D93019B1A68009BD3
:103F50001344089A9A4203D2089A009BD31A01E0AC
:103F6000019B1B680C93019B0C9A1A6005E00F9B48
:103F70001B680F930E9B013B0E930E9B002BF6D1FB
:103F800000230B93079A0D9BD31A0A930A9A0C9B52
:103F9000934228BF13460A932AE0029A0B9B1344CC
:103FA00006930F9A0D9B1344043305939DF84830F4
:103FB000002B05D00A9A0599069801F0D6FE04E078
:103FC0000A9A0699059801F0D0FE00230D930F9BE5
:103FD0001B680F930C9A0A9BD31A0C930B9A0A9B9B
:103FE00013440B93079A0C9B934228BF13460A93E2
:103FF0000C9B002BD1D100BF00BF11B05DF804FBBA
:104000006C63000000B589B005900491039202939F
:10401000039B079307AA00230093029B049905982A
:10402000FFF75EFF079B039A9A4203D00349F620ED
:10403000FDF76AFD00BF09B05DF804FB6C6300008A
:1040400000B589B00590049103920293039B0793F6
:1040500007AA01230093029B04990598FFF740FFEC
:10406000079B039A9A4204D004494FF48070FDF7ED
:104070004BFD00BF09B05DF804FB00BF6C6300009E
:1040800082B00190019B9B68024A12781344184643
:1040900002B07047F963000000B583B00190009151
:1040A000019B002B03D108498320FDF72DFD019BC7
:1040B0009B68009A9A4202D2009B013300E00023E1
:1040C000184603B05DF804FBB463000000B585B08A
:1040D0000190019B1B681B680393019B1B685B6835
:1040E0000293029A039B9A4203D3029A039BD31A28
:1040F00007E00198FFF7C4FF0246039BD21A029B18
:104100001344184605B05DF804FB000000B585B007
:104110000190019B002B03D10D499820FDF7F4FC81
:10412000019B1B681B680393019B1B685B680293E0
:1041300002990198FFF7B0FF0246039B93420CBF20
:1041400001230023DBB2184605B05DF804FB00BF75
:10415000B463000010B586B0019000910023059370
:10416000019B002B03D15249A320FDF7CDFC009BFE
:10417000002B03D14E49A420FDF7C6FC0020FDF71B
:10418000AFFC0198FFF7C2FF03468DF813309DF88E
:10419000133083F00103DBB2002B03D1019B1B7CA6
:1041A000002B7AD1019B1B685B680393019B1B6802
:1041B0005A68019B1C6811460198FFF76DFF034682
:1041C00063609DF81330002B0AD0019B1B681A68AE
:1041D000019B1C6811460198FFF75EFF03462360B0
:1041E000019BDB68013B072B37D801A252F823F073
:1041F00011420000214200005B42000033420000F7
:104200005B4200005B4200005B4200004542000050
:10421000019B5A68039B1344009A12781A702DE090
:10422000019B5A68039B5B001344009A12881A8012
:1042300024E0019B5A68039B9B001344009A126878
:104240001A601BE0019B5A68039BDB00D118009B9E
:10425000D3E90023C1E9002310E0019B5B68194604
:10426000019BDB68039A02FB03F30B441846019B96
:10427000DB681A46009901F078FD00BF0198FFF74E
:1042800025FF0290019B1B689B68029A9A4207D9FE
:10429000019B1B68029A9A6002E00423059300E0E8
:1042A00000BF0020FDF725FC059B184606B010BD99
:1042B000B463000010B586B00390029113468DF8E8
:1042C000073000230593039B002B03D14249E720CD
:1042D000FDF71AFC029B002B03D13F49E820FDF7B4
:1042E00013FC0020FDF7FCFB039800F095F8034653
:1042F00083F00103DBB2002B64D0039B1B681B68B7
:1043000004939DF8073083F00103DBB2002B0AD041
:10431000039B1B681A68039B1C6811460398FFF7F0
:10432000BBFE03462360039BDB68013B072B38D8A9
:1043300001A252F823F000BF594300006943000076
:10434000A34300007B430000A3430000A3430000FD
:10435000A34300008D430000039B5A68049B134451
:104360001A78029B1A702FE0039B5A68049B5B002B
:1043700013441A88029B1A8026E0039B5A68049B08
:104380009B0013441A68029B1A601DE0039B5A6845
:10439000049BDB001344D3E900230299C1E9002305
:1043A00012E0039B5B681946039BDB68049A02FBDF
:1043B00003F30B441946039BDB681A46029801F08D
:1043C000D4FC01E0052305930020FDF792FB059B3B
:1043D000184606B010BD00BFB463000000B583B03E
:1043E0000190019B002B04D10A494FF40470FDF7A2
:1043F0008BFB0020FDF774FB019B1B680C22002146
:10440000184601F0DBFC0020FDF773FB00BF03B092
:104410005DF804FBB463000000B585B00190019B1A
:10442000002B04D10B4940F22B20FDF76DFB019BC3
:104430001B681B680393019B1B685B680293039ACC
:10444000029B9A420CBF01230023DBB2184605B041
:104450005DF804FBB463000000B585B001900198DD
:1044600000F00EF80390039B002B01D0039B00E0AB
:10447000024B184605B05DF804FB00BF5464000011
:1044800086B00190164B0593164B04931FE0049AD7
:10449000059BD31ADB10DA0F13445B10DB00059A7F
:1044A00013440393039B1B680293029A019B9A4255
:1044B00002D9039B04930AE0029A019B9A4203D219
:1044C000039B0833059302E0039B5B6804E0059AB5
:1044D000049B9A42DBD30023184606B0704700BF06
:1044E000286800004069000082B003468DF807305C
:1044F0009DF90730002B0CDB9DF8073003F01F02FD
:1045000005499DF907305B09012000FA02F241F8E4
:10451000232000BF02B0704700E100E082B00346F4
:1045200000918DF807309DF90730002B0ADB009BC6
:10453000DAB20C499DF907305201D2B20B4483F82C
:1045400000230BE0009BDAB207499DF8073003F027
:104550000F03043B5201D2B20B441A7600BF02B0E3
:10456000704700BF00E100E000ED00E082B0019084
:10457000019B1B0B5BB2184602B0704700B583B0BD
:1045800003460A468DF8073013468DF806309DF82D
:104590000630072B03D908496B20FDF7B5FA9DF8C3
:1045A00006209DF9073011461846FFF7B7FF00BFF8
:1045B00003B05DF804FB00BF4069000000B583B0A4
:1045C00003468DF807309DF907301846FFF78CFF3A
:1045D00000BF03B05DF804FB82B003468DF80730DE
:1045E0000F4A9DF90730002B00DA1F335B115BB2D5
:1045F00052F823209DF90730594203F01F0301F0C0
:104600001F0158BF4B425BB222FA03F303F00103D0
:10461000002B14BF01230023DBB2184602B0704701
:1046200000E100E082B001904FF05022019BC2F8FF
:10463000043300BF02B0704782B001904FF05022A7
:10464000019BC2F8083300BF02B0704782B0034636
:104650008DF807309DF8073003F1502301221A60CE
:1046600000BF02B0704782B00346ADF80630BDF817
:10467000063003F1502300221A6000BF02B07047D9
:1046800082B00346ADF80630BDF8063003F1502382
:104690001B68002B14BF01230023DBB2184602B0B5
:1046A000704782B003468DF807304FF050229DF8D6
:1046B0000730C2F8183500BF02B0704700B583B0AC
:1046C00006238DF807304FF05020FFF74FFF0346C9
:1046D0001846FFF781FF034683F00103DBB2002B8E
:1046E00013D04FF05020FFF741FF03461A469DF8C4
:1046F000073019461046FFF741FF4FF05020FFF7F3
:1047000035FF03461846FFF759FF00BF03B05DF8B9
:1047100004FB000000B585B00190019B002B03D184
:104720000B49A420FDF7F0F900230393094B1B79F3
:10473000002B02D08523039305E0064A019B1360FA
:10474000044B01221A71039B184605B05DF804FB67
:1047500078690000E405002008B5074B1B79002BA1
:1047600003D10649BD20FDF7CFF9FFF7A7FF0120D0
:10477000FFF797FF00BF08BDE4050020786900003F
:1047800008B50A4B1B79002B03D10949EA20FDF734
:10479000BBF94FF48270FFF766FF0220FFF742FF7C
:1047A0000820FFF753FF00BF08BD00BFE40500204D
:1047B0007869000008B54FF48070FFF761FF034689
:1047C000002B0AD04FF48070FFF74DFF0120FFF758
:1047D00033FF0C4B1B68002098474FF48270FFF7A3
:1047E0004FFF0346002B0AD04FF48270FFF73BFFC8
:1047F0000220FFF721FF034B1B680120984700BFF1
:1048000008BD00BFE405002082B003468DF80730E4
:104810009DF90730002B0CDB9DF8073003F01F02D9
:1048200005499DF907305B09012000FA02F241F8C1
:10483000232000BF02B0704700E100E082B00346D1
:1048400000918DF807309DF90730002B0ADB009BA3
:10485000DAB20C499DF907305201D2B20B4483F809
:1048600000230BE0009BDAB207499DF8073003F004
:104870000F03043B5201D2B20B441A7600BF02B0C0
:10488000704700BF00E100E000ED00E000B583B03C
:1048900003460A468DF8073013468DF806309DF81A
:1048A0000630072B03D908496B20FDF72DF99DF839
:1048B00006209DF9073011461846FFF7BFFF00BFDD
:1048C00003B05DF804FB00BFBC69000000B583B015
:1048D00003468DF807309DF907301846FFF794FF1F
:1048E00000BF03B05DF804FB84B003900291019215
:1048F000039B029A02F5A872019943F8221000BFA7
:1049000004B0704782B001900091019B009AC3F8F7
:10491000042300BF02B0704782B001900091019B58
:10492000009AC3F8082300BF02B0704782B001901C
:104930000091019BD3F80423009B1340184602B05A
:10494000704782B001900B46ADF80230BDF80230DE
:10495000019A13441B68184602B0704782B0019058
:104960000B46ADF80230BDF80230019A1344002224
:104970001A6000BF02B0704782B00190019BD3F86B
:104980000435184602B0704700B583B0019000911D
:10499000009BB3F5805F04D306494FF4BE70FDF76A
:1049A000B3F8019B009AC3F8082500BF03B05DF877
:1049B00004FB00BFEC69000082B001900091019BF4
:1049C000009AC3F8442300BF02B0704782B0019040
:1049D0000091019B009AC3F8482300BF02B07047C2
:1049E00000B587B0039002910192029B002B03D186
:1049F00031495120FDF788F8019B002B03D12E4946
:104A00005220FDF781F8039B5B7919462B4A019BE5
:104A100042F82130039B5B791946294A0B465B001B
:104A20000B4413441B78002B03D008230593059BEC
:104A30003DE0039B93F90420029B9B7819461046A6
:104A4000FFF724FF039B93F904301846FFF73EFF5E
:104A5000039B1A68029B1B8819461046FFF794FFB8
:104A6000039B5B791946029B1879154A0B465B003C
:104A70000B441344013302461A70039B5B791946B9
:104A8000029BD8780E4A0B465B000B44134402335A
:104A900002461A70039B5B791946094A0B465B0074
:104AA0000B44134401221A7000230593059B1846FA
:104AB00007B05DF804FB00BF206A0000EC05002091
:104AC000F005002000B58BB00390029101928DF8A3
:104AD0000330039B5B791946484A0B465B000B4445
:104AE00013441B78002B03D14549B420FDF70CF883
:104AF000039B9B791A46029B934203D34049B520FE
:104B0000FDF702F84FF48032029B02FA03F306939A
:104B1000029B9BB250339BB29B00ADF81630039BB7
:104B20001B6806991846FFF751FF039B1B680699FF
:104B30001846FFF7F1FE019B23F07F430193039B8F
:104B40005B7919462D4A0B465B000B441344013335
:104B50001B78002B2CD0039B1B68019A02991846E6
:104B6000FFF7C2FE039B1B681846FFF705FF09907D
:104B7000099A019BD31A0893099A019B9A4205D27C
:104B8000089B03F1FF1303F57F430893039B5B79B5
:104B900019461A4A0B465B000B44134402331B7838
:104BA0001A46089B93420ADA0D230793079B21E0DC
:104BB000039B1B68019A02991846FFF795FE9DF822
:104BC0000330002B0DD0039B1B68BDF81620114647
:104BD0001846FFF7C3FE039B1B6806991846FFF7AC
:104BE00091FE039B1B6806991846FFF7E5FE00231C
:104BF0000793079B18460BB05DF804FBF0050020F7
:104C0000206A000000B589B00390029101924FF430
:104C1000803306934FF4A073ADF81E300023059344
:104C200030E006990398FFF781FE0346002B1ED063
:104C3000BDF81E3019460398FFF783FE0346002B8C
:104C400015D006990398FFF7C1FE06990398FFF760
:104C500063FEBDF81E3019460398FFF77FFE2D4A0C
:104C6000029B52F82330059AD2B210469847069B11
:104C70005B000693BDF81E300433ADF81E30059B73
:104C800001330593059A019B9A42CAD34FF480736E
:104C9000ADF81E3001210398FFF748FE0346002BB4
:104CA00014D0BDF81E3019460398FFF74AFE03469C
:104CB000002B0BD0BDF81E3019460398FFF74EFEAF
:104CC000144A029B52F82330042098474FF4827311
:104CD000ADF81E3002210398FFF728FE0346002B93
:104CE00014D0BDF81E3019460398FFF72AFE03467C
:104CF000002B0BD0BDF81E3019460398FFF72EFE8F
:104D0000044A029B52F823300520984700BF09B09F
:104D10005DF804FBEC05002008B5042200210248E0
:104D2000FFF770FF00BF08BD0040015082B003468E
:104D30008DF807309DF90730002B0CDB9DF807300C
:104D400003F01F0205499DF907305B09012000FAB5
:104D500002F241F8232000BF02B0704700E100E0FA
:104D600082B0034600918DF807309DF90730002B83
:104D70000ADB009BDAB20C499DF907305201D2B22E
:104D80000B4483F800230BE0009BDAB207499DF83F
:104D9000073003F00F03043B5201D2B20B441A76E2
:104DA00000BF02B0704700BF00E100E000ED00E08E
:104DB00082B00190019B1B0B5BB2184602B070479A
:104DC00000B583B003460A468DF8073013468DF8C8
:104DD00006309DF80630072B03D908496B20FCF7F5
:104DE00093FE9DF806209DF9073011461846FFF7FF
:104DF000B7FF00BF03B05DF804FB00BF646A0000AA
:104E000000B583B003468DF807309DF9073018468A
:104E1000FFF78CFF00BF03B05DF804FB82B0019088
:104E20000B468DF803309DF80330019A134401229C
:104E30001A6000BF02B0704782B001900B46ADF817
:104E40000230BDF80230019A134400221A6000BFFC
:104E500002B0704782B001900B46ADF80230BDF849
:104E60000230019A13441B68002B14BF0123002356
:104E7000DBB2184602B0704782B001900091019BEE
:104E8000009AC3F8042300BF02B0704782B00190BB
:104E90000091019B009AC3F8082300BF02B070473D
:104EA00082B001900091019BD3F80423009B134032
:104EB000002B14BF01230023DBB2184602B0704759
:104EC00082B001900B468DF80330019BD3F8043576
:104ED00023F003029DF8033003F003031A43019B00
:104EE000C3F8042500BF02B0704782B001900B46A2
:104EF0008DF80330019BD3F8083523F003029DF8A9
:104F0000033003F003031A43019BC3F8082500BFD5
:104F100002B0704782B001900B468DF80330019BC0
:104F2000D3F8103523F00F029DF8033003F00F0380
:104F30001A43019BC3F8102500BF02B0704784B02C
:104F400003900B4601928DF80B309DF80B20039BCC
:104F500002F5A872019943F8221000BF04B070470F
:104F600082B00190019B9B0003F5A0739BB2184691
:104F700002B0704782B001904FF48032019B02FA78
:104F800003F3184602B0704710B588B00390029141
:104F90000192039B1B791A4613465B0013449B0046
:104FA0005B4A13440793029B002B03D159494A20C3
:104FB000FCF7AAFD019B002B03D156494B20FCF7BF
:104FC000A3FD079B1B7A002B03D008230593059BA9
:104FD0009AE0039B1B68504A93420FD1029B9B7837
:104FE000012B3AD0029B9B78002B36D0029B9B78FA
:104FF000022B32D0029B9B78032B2ED0039B1B6885
:10500000464A93420FD1029B9B78012B25D0029BED
:105010009B78002B21D0029B9B78022B1DD0029BFA
:105020009B78032B19D0039B1B683D4A93420FD1F9
:10503000029B9B78012B10D0029B9B78002B0CD0FD
:10504000029B9B78022B08D0029B9B78032B04D0F9
:1050500030495F20FCF758FD00E000BF079B019A34
:105060001A60029B5A68079B5A6000238DF81B3018
:1050700010E0039B1C689DF81B301846FFF770FF7B
:10508000034619462046FFF7D7FE9DF81B30013333
:105090008DF81B30039B5B799DF81B209A42E8D367
:1050A000039B1B681846FFF783FE03461A46029BC4
:1050B000DB7819461046FFF783FE039B1B681846F2
:1050C000FFF776FE03461846FFF79AFE039B1A6821
:1050D000029B5B7819461046FFF7F2FE039B1A68A5
:1050E000029B9B7819461046FFF7FFFE039B1A6848
:1050F000029B1B7819461046FFF70CFF079B012205
:105100001A7200230593059B184608B010BD00BF16
:10511000F40500209C6A000000F0005000000150DF
:105120000010015000B583B00190019B1B79194616
:10513000114A0B465B000B449B00134408331B7859
:10514000012B03D00D498F20FCF7DEFC019B1B686F
:1051500000211846FFF762FE019B1B791946064A9B
:105160000B465B000B449B001344083302221A7069
:1051700000BF03B05DF804FBF40500209C6A00004A
:1051800000B583B00190019B1B7919460B4A0B4671
:105190005B000B449B00134408331B78002B03D1A6
:1051A0000749B320FCF7B0FC019B1B680C21184693
:1051B000FFF734FE00BF03B05DF804FBF4050020E8
:1051C0009C6A000010B586B0039001921A460B4607
:1051D0008DF80B3013468DF80A309DF80B301846C9
:1051E000FFF7C8FE05909DF80A30002B12D0039BF4
:1051F0001C689DF80B301846FFF7B2FE03461946AF
:105200002046FFF719FE039B1B6805991846FFF718
:1052100033FE05E0039B1B6805991846FFF736FE31
:10522000039B1B689DF80B10019A1846FFF787FE39
:1052300000BF06B010BD00B587B0039002911346C1
:105240008DF8073000238DF8173030E09DF81730C7
:105250001846FFF785FE0346ADF814309DF8173069
:105260001846FFF787FE0490BDF8143019460398DE
:10527000FFF7F0FD0346002B14D004990398FFF7C5
:105280000FFE0346002B0DD0BDF8143019460398CD
:10529000FFF7D2FD029B1B68029A5168BDF81420EB
:1052A000104698479DF8173001338DF817309DF858
:1052B00017209DF807309A42C8D300BF00BF07B03F
:1052C0005DF804FB08B5062202490348FFF7B3FF67
:1052D00000BF08BDF405002000F0005082B001902E
:1052E0000091019B009AC3F8042500BF02B07047EB
:1052F00082B001900091019B009AC3F8082500BF7D
:1053000002B0704782B003468DF80730074B1A6829
:105310009DF8073022FA03F303F00103002B14BFBA
:1053200001230023DBB2184602B0704700060020BC
:1053300086B00190174B1B68DB43039300238DF865
:105340001330039B002B08D104230593059B1DE01C
:105350009DF8133001338DF813309DF81330039A04
:1053600022FA03F303F00103002BF1D09DF8133070
:1053700001229A40074B1B681343064A1360019BA6
:105380009DF813201A7000230593059B184606B05C
:10539000704700BF0006002000B585B003468DF8B9
:1053A0000730002303939DF807301846FFF7AAFF44
:1053B000034683F00103DBB2002B02D007230393E3
:1053C00013E09DF80730012202FA03F31946094859
:1053D000FFF78EFF9DF80730012202FA03F3DA434C
:1053E000054B1B681340044A1360039B184605B025
:1053F0005DF804FB007001500006002000B585B088
:1054000003468DF80730002303939DF807301846B4
:10541000FFF778FF034683F00103DBB2002B02D0D5
:105420000723039308E09DF80730012202FA03F3F3
:1054300019460448FFF752FF039B184605B05DF874
:1054400004FB00BF0070015000B585B003468DF825
:105450000730002303939DF807301846FFF752FFEB
:10546000034683F00103DBB2002B02D00723039332
:105470000AE09DF80730012202FA03F319460548B5
:10548000FFF736FF00230393039B184605B05DF832
:1054900004FB00BF0070015000B583B003468DF8D7
:1054A00007300748074B1B6A5A0901230021FFF701
:1054B00009FB0548FDF7A2FA00BF03B05DF804FB45
:1054C000F86A00006C090020006B000000B58DB088
:1054D00001900091019B0B93009B1B78022B06D03F
:1054E000022B6DDC002B06D0012B38D068E00020A9
:1054F000FCF7A2F965E0009B5968009B9B681A467F
:105500000B98FDF7CBFC0A900A9B112B16D1009B40
:105510005B680593009B9B68069305AB19462B4877
:10552000FEF718FE0A900A9B0793079B002B0FD0EB
:10553000274A6C210798FCF72FFA09E00A9B089389
:10554000089B002B04D0224A70210898FCF724FA0B
:105550000120FCF771F91F4B01221A7031E01D4B3D
:105560001B78DBB2002B27D0009B5968009B9B68FF
:105570001A460B98FDF7A4FC1448FEF74DFF0346AE
:1055800083F00103DBB2002B16D003AB00221946D7
:105590000E48FEF78FFE0A900A9B0993099B002B89
:1055A00004D00B4A7D210998FCF7F6F9039B049A75
:1055B00019460B98FDF772FC0220FCF73DF900E05C
:1055C00000BF00BF0DB05DF804FB00BF985E000097
:1055D000286B00009409002082B003468DF8073044
:1055E00000BF02B07047000000B58DB00120FCF78D
:1055F00071F92048FFF78EF8FFF7AEF8FFF7C0F813
:1056000001AB20220021184600F0D8FB162301939D
:1056100014230293642305934FF0805307930623CA
:105620008DF8213001A9144B144A1348FDF73EFAB6
:105630000B900B9B0A930A9B002B04D0104AA721C6
:105640000A98FCF7A9F90C48FDF7A8FB0D4B1B784D
:105650001A460D490848FDF721FC0B900B9B099356
:10566000099B002B04D0064AAC210998FCF794F959
:10567000FEE700BFD9550000006B0000CD540000CC
:10568000286B0000680000204400002000B589B0AD
:1056900003900291019200230693039BDB6805931C
:1056A000039B1B690493049A059B9A4205D9049AAB
:1056B000059BD31A013B079307E0039B9A68049963
:1056C000059BCB1A1344013B0793039B9A68059BE8
:1056D000D31A079A934228BF13460793079A019B50
:1056E000934228BF13460793039B5A68059B1344B4
:1056F000079A0299184600F038FB069A079B134454
:105700000693029A079B13440293019A079BD31AAC
:105710000193059A079B13440593039B9B68059A85
:105720009A4201D100230593039B059ADA60019BFD
:10573000002BB5D1069B184609B05DF804FB00B5F7
:1057400089B0039002910192039BDB680793039B4E
:105750009A68079BD31A0693069A019B9A420ED920
:10576000039B5A68079B1344019A0299184600F05C
:10577000FCFA079A019B1A44039BDA601AE0069B25
:105780000593039B5A68079B1344059A0299184690
:1057900000F0EBFA019A069BD31A0593039B586815
:1057A000029A069B1344059A194600F0DEFA039B01
:1057B000059ADA6000BF09B05DF804FB86B001907D
:1057C000019B1B690493019BDB680393049A039B71
:1057D0009A4208D8019B9A68039BD21A049B1344EF
:1057E000013B059304E0049A039BD31A013B059304
:1057F000059B184606B0704700B589B0039002912A
:105800000192029B0693039B5A1C13465B001344B0
:10581000DB00204A13440593059B5B69022B29D0CA
:10582000022B2ED8002B02D0012B13D029E0059893
:10583000FFF7C4FF0490049A019B9A4202D200230E
:10584000079321E0019B0793019A06990598FFF7BA
:1058500076FF19E00598FFF7B1FF0490019A049BC9
:10586000934228BF13460793079A06990598FFF7B6
:1058700066FF09E0019A06990598FFF707FF079070
:1058800002E00023079300BF079B184609B05DF8AC
:1058900004FB00BFFC09002082B0134B1B6801937E
:1058A000124B1B680093019B072B19D1009B023BF5
:1058B000032B13D801A252F823F000BFCD580000EB
:1058C000D1580000D5580000D9580000012308E045
:1058D000002306E0002304E0002302E0002300E0B0
:1058E0000023184602B070473001FF003401FF006A
:1058F00082B0134B1B680193124B1B680093019BF2
:10590000072B19D1009B023B032B13D801A252F89D
:1059100023F000BF25590000295900002D5900002F
:1059200031590000012308E0012306E0002304E0D0
:10593000002302E0002300E00023184602B0704775
:105940003001FF003401FF0082B0134B1B6801934C
:10595000124B1B680093019B072B19D1009B023B44
:10596000032B13D801A252F823F000BF7D59000089
:10597000815900008559000089590000012308E081
:10598000002306E0002304E0002302E0002300E0FF
:105990000023184602B070473001FF003401FF00B9
:1059A00082B0134B1B680193124B1B680093019B41
:1059B000072B19D1009B023B032B13D801A252F8ED
:1059C00023F000BFD5590000D9590000DD5900006F
:1059D000E1590000012308E0012306E0012304E06F
:1059E000012302E0012300E00023184602B07047C3
:1059F0003001FF003401FF0082B0134B1B6801939C
:105A0000124B1B680093019B072B19D1009B023B93
:105A1000032B13D801A252F823F000BF2D5A000027
:105A2000315A0000355A0000395A0000012308E0BD
:105A3000002306E0002304E0002302E0002300E04E
:105A40000023184602B070473001FF003401FF0008
:105A500082B0134B1B680193124B1B680093019B90
:105A6000072B19D1009B023B032B13D801A252F83C
:105A700023F000BF855A0000895A00008D5A0000AB
:105A8000915A0000012308E0002306E0002304E00F
:105A9000002302E0002300E00023184602B0704714
:105AA0003001FF003401FF0082B0134B1B680193EB
:105AB000124B1B680093019B072B19D1009B023BE3
:105AC000032B13D801A252F823F000BFDD5A0000C7
:105AD000E15A0000E55A0000E95A0000012308E0FD
:105AE000002306E0002304E0002302E0002300E09E
:105AF0000023184602B070473001FF003401FF0058
:105B0000054B064A1B68C2F84435034B034ADB6960
:105B1000C2F84C3500BF70470080FF0000600050A5
:105B20004FF05023D3F8583503F00303034A22FA09
:105B300003F3034A136000BF704700BF0020A107B2
:105B40006C00002000B583B0FFF7AEFF0346002BCA
:105B50000CD04F4B1B68002B08D14D4B0D221A6007
:105B60004C4B01221A604B4B00221A600023019318
:105B70000023019310E04FF47F014FF47F02019B5B
:105B8000603352F83320019B6033DB000B445B68C9
:105B90001360019B01330193019B1F2B08D84FF425
:105BA0007F02019B603352F83330B3F1FF3FE2D103
:105BB000FFF722FF0346002B05D0374B29221A603E
:105BC000364B03221A60FFF767FE0346002B07D00F
:105BD000334B344A1A604FF050230122C3F8582542
:105BE000FFF786FE0346002B02D02F4B00221A60DF
:105BF000FFF7AAFE0346002B11D04FF05023D3F835
:105C0000003403F00103002B09D04FF05023002291
:105C1000C3F814214FF050230022C3F81821FFF7D6
:105C2000BFFE0346002B0DD04FF05023D3F80034B5
:105C300003F00103002B05D04FF050236FF0010259
:105C4000C3F80024FFF704FF0346002B02D0124BD9
:105C500065221A60154BD3F88C30144A43F4406324
:105C6000C2F88C30FFF74CFF104BD3F888300F4A46
:105C700043F47003C2F88830BFF34F8F00BFBFF307
:105C80006F8F00BFFFF74CFF00BF03B05DF804FB50
:105C9000204A00501C4900500C4700503C4700501F
:105CA000309503504400EFBE4C25035000ED00E05A
:105CB0007F2805D8034B185C034B5B5C184070478A
:105CC00000207047746B0000F46B0000A0F16103CA
:105CD000192B98BF20387047A0F14103192B98BFAA
:105CE000203070477F2805D8034B185C034B5B5C62
:105CF0001840704700207047746B0000F46B000080
:105D0000A0F16103192B98BF20387047A0F141031F
:105D1000192B98BF203070477F2902D801700120CD
:105D200070476FF02E0070475AB10A787F2A0AD860
:105D300000B10260002119605960501A18BF01209B
