:1000000000000420750300005D0300005F03000092
:1000100061030000630300006503000000000000AE
:100020000000000000000000000000006703000066
:1000300069030000000000006B0300006D03000076
:100040006F0300006F030000B90700006F0300009A
:100050006F0300006F0300006F0300006F030000D8
:100060006F0300006F0300006F0300006F030000C8
:100070006F0300006F0300006F0300006F030000B8
:100080006F0300006F0300006F0300006F030000A8
:100090006F0300006F0300006F0300006F03000098
:1000A0006F0300006F0300006F0300006F03000088
:1000B0006F0300006F03000000000000000000005C
:1000C0006F0300006F0300006F0300006F03000068
:1000D0006F0300006F0300006F0300006F03000058
:1000E0006F0300006F0300006F03000000000000BA
:1000F000000000006F030000000000006F0300001C
:1001000000000000000000000000000000000000EF
:1001100000000000000000000000000000000000DF
:1001200000000000000000000000000000000000CF
:1001300000000000000000000000000000000000BF
:1001400000000000000000000000000000000000AF
:10015000000000000000000000000000000000009F
:10016000000000000000000000000000000000008F
:10017000000000000000000000000000000000007F
:10018000000000000000000000000000000000006F
:10019000000000000000000000000000000000005F
:1001A000000000000000000000000000000000004F
:1001B000000000000000000000000000000000003F
:1001C000000000000000000000000000000000002F
:1001D000000000000000000000000000000000001F
:1001E000000000000000000000000000000000000F
:1001F00000000000000000000000000000000000FF
:10020000354936480A1A02D0072291438D463449AF
:1002100034480A1A06D00722914381F30988022242
:1002200082F3148830483149314A00F044F83148AB
:100230003149324A00F03FF831483249324A00F041
:100240003AF832483249334A00F035F832483349F7
:10025000334A00F030F833483349344A00F02BF881
:1002600033483449344A00F026F8344834490022EF
:1002700000F02CF833483449002200F027F83348C6
:100280003349091A082902DB002202604160314A21
:1002900090471F481F49884205D00268043003B4C4
:1002A000904703BCF7E700208646EC46002000217B
:1002B000294A9047FEE7884207D0521A05D00378B2
:1002C00001300B700131013AF9D17047884202D0F8
:1002D00002700130FAE770470000042000E00320BC
:1002E0000000042000000420F80F0000000000209F
:1002F00010000020D0030000D00300008C0F00008D
:10030000F80F000000000020000000208C0F00000B
:100310008C0F00008C0F00008C0F00008C0F000071
:100320008C0F00008C0F00008C0F0000F80F0000F5
:100330000810000010000020100000201000002015
:100340007C0200207C0200207C0200207C02002035
:100350007C2200209D0300009D0C0000FEE7FEE7CC
:10036000FEE7FEE7FEE7FEE7FEE7FEE7FEE7FEE765
:1003700000F002B8FFF7FCBF0F484FF007018843B9
:1003800085460E4880470E48016841F470010160BF
:10039000BFF34F8FBFF36F8FFFF732BF09480A4992
:1003A0000A4A884207D0521A05D0037801300B70F0
:1003B0000131013AF9D1704700000420690D0000B5
:1003C00088ED00E08C0F00000000002000000020FD
:1003D000074B1B5C1F2B86BF064903F01F034FF022
:1003E000A041012202FA03F3C1F80835704700BFAB
:1003F0008C0F00000003005008B50020FFF7E8FF55
:100400000120FFF7E5FF0220FFF7E2FFBDE808400B
:100410000320FFF7DDBFC20710B504460CD54FF02F
:10042000A0430322C3F83427C3F83827C3F83C2776
:10043000C3F84027FFF7E0FFA3070AD54FF0A0431A
:100440000C22C3F82C27C3F83027C3F86027C3F861
:10045000642710BD1FB50021039001AA44F20100DA
:10046000CDE9011100F004F805B05DF804FB0000CF
:1004700072B6094BD3F8F020D20700D500BEBFF307
:100480004F8FD968054A01F4E0610A43DA60BFF38F
:100490004F8F00BFFDE700BF00ED00E00400FA054C
:1004A00049B152B1531E1A4007D182600160838066
:1004B000C260104670470E2070470920704710B583
:1004C0008468C2688388121B934208D3C2681340B1
:1004D0000268D154C3680133C360002010BD0420FA
:1004E000FCE78268C3689A420AD082688388134016
:1004F0000268D35C0B70836801338360002070470F
:100500000520704737B50578012D10D0022D36D063
:10051000A5B924492448FFF7E4FF00283DD121492B
:100520002248012203B0BDE8304000F0F3BA037A5C
:1005300033B91F491D48012200F03AFB03B030BD1A
:1005400043681C4C19782046FFF7B9FF80B18DF83D
:1005500000500190184B68461B689847A168E368F3
:10056000A2885B1A9A42E4D2144B01221A70E5E782
:10057000A268E3689A42F1D08DF80000EAE7C36808
:100580000B490A488DF800500122019300F010FB3E
:10059000094B68461B689847D0E703238DF8003065
:1005A000F6E700BF390000202800002004000020EA
:1005B000380000201400002010000020240000203B
:1005C000F0B51F46244B89B004461A600D46002939
:1005D00040D08A8821480968FFF762FF002837D198
:1005E000AA89A9681E48FFF75BFF002830D11D4E7D
:1005F0000FCE6D460FC596E80F0085E80F006369C2
:100600000693237C184A19488DF81C70003B18BFCC
:1006100001238DF81430637C002B14BF0E230023BC
:100620008DF81530E3680293A36803932368019360
:1006300069466368009300F097F848B90C4B18704E
:100640002368013304D00B490B48012200F0B0FAB3
:1006500009B0F0BD0720FBE71000002014000020C7
:1006600028000020900F0000050500000000002079
:1006700024000020380000200400002070B50A4D3E
:1006800001460A482E78FFF72CFF04464EB100239E
:10069000074908482B70012200F08AFA08B1FFF7D9
:1006A000D9FE204670BD00BF2400002014000020A9
:1006B000380000200400002010B501460B48FFF769
:1006C000FEFE044678B90A4800F018FA58B90949FC
:1006D0000648FFF706FF30B9BDE810400549044859
:1006E000012200F017BA204610BD00BF28000020EC
:1006F000040000203900002072B6024A136801335A
:10070000136070473C000020034A1368013B1360EC
:1007100003B962B6704700BF3C000020FFF7ECBF92
:10072000FFF7F2BF10B50446C0B2FFF7C5FF204681
:1007300010BD00001FB503788DF8003043680193A9
:1007400083688DF80830C368054A0393054B6846F3
:1007500053F8213052F82110984705B05DF804FB9A
:100760004000002048000020F0B506460F4B16F868
:1007700004CB43F82C200E4B17460C460A6943F86D
:100780002C200FCC89B06D460FC594E80F00002FC8
:1007900085E80F00074ACDF810C008BF3A46694601
:1007A000304600F0CFF809B0F0BD00BF480000208F
:1007B0004000002035070000014B1B68184700BFB0
:1007C0005000002038B50B4B98420C4601D0002059
:1007D00038BD0020FFF7A2FF074B1D7915B9012294
:1007E0001C601A710020FFF79BFF002DEFD0112035
:1007F000EEE700BF002000405000002000234350DF
:1008000082B043580193019B02B070471FB501238A
:100810008DF80030044BCDE90110D3E90012684691
:10082000904705B05DF804FB580000207FB5434AAF
:10083000D2F82461002E60D010464FF49271FFF779
:10084000DDFF02238DF80030D2F88034C2F8803406
:100850000393D2F83C350293394BDA6801920022B7
:10086000C3E906226846D3E9001290473348D0F81E
:10087000443173B14FF4A271FFF7C0FF304B9A6956
:100880003AB10022C3E90622D968D0F83C05FFF747
:10089000BDFF2A48D0F82031ABB14FF49071FFF77B
:1008A000ADFF0123C360264B5A6962B1D0F84C15E5
:1008B0000291002299688DF8002001915A616846E2
:1008C000D3E9001290471D48D0F858319BB14FF43E
:1008D000AC71FFF793FF1A4B5A6962B1D0F84C150F
:1008E0000291002299688DF8002001915A616846B2
:1008F000D3E90012904704B070BDD2F81031002B3C
:10090000B4D04FF488711046FFF778FF0C4BD2F843
:100910003C0599698842A9D1DC69D96864B1D2F8EB
:10092000005225F02005C2F800521A699C61DA6075
:10093000DE61FFF76BFF99E79C61FAE7002000405A
:10094000580000202DE9F843664E90F804802423D7
:1009500003FB0863044693F820300D469146002BB4
:1009600040F0BC8060490068FFF72CFF0746002874
:1009700040F0B68029684B1C10D01F2987BF5B4A06
:1009800001F01F030B464FF0A0420120984003F5F1
:10099000E073C2F80805032042F823006A68501C7F
:1009A0000DD01F2A8BBF02F01F0313464F484FF094
:1009B000A04003F5E0734FF0000C40F823C020681E
:1009C000AB69C0F8243595F814C06B7DBCF1010FFC
:1009D0004CEA0303C0F86C35C0F80C15C0F81425B8
:1009E0002BD1AB68591C0DD01F2B8BBF03F01F02FE
:1009F0001A463E494FF0A04102F5E0724FF0000C5C
:100A000041F822C0E9684A1C13D01F2987BF374A22
:100A100001F01F0C8C464FF0A0424FF0010E0EFA71
:100A20000CFE0CF5E07CC2F808E54FF0030E42F82E
:100A30002CE0C0F80815C0F81035242202FB08F29B
:100A4000B318C3F804902B69B350B9F1000F2FD03D
:100A50004FF488712A7FFFF7D1FE20684FF4907120
:100A6000FFF7CCFE20684FF49271FFF7C7FE2068B5
:100A70004FF4A271FFF7C2FE4FF4AC712068FFF78C
:100A8000BDFE23681A49C3F80413190B43F3073357
:100A90005201002BD2B21CDB1648C51885F8002382
:100AA00001225B0901F01F0102FA01F140F8231055
:100AB00023680822C3F80025242303FB08660023CB
:100AC000C6E906337361012386F820303846BDE855
:100AD000F883094B01F00F015A54E9E70827F5E7BD
:100AE0001127F3E7580000202D08000000030050F4
:100AF0001003420000E100E014ED00E00279044B35
:100B0000242101FB02335869003818BF01207047C7
:100B10005800002001F06043B3F1005F2DE9F04779
:100B20000646884692463BD190F80490FFF7E6FFD0
:100B30000446002836D11D4F3068242505FB097571
:100B40004FF49071C5F814A0C5F80880FFF756FE61
:100B50004FF4AC713068FFF751FE33686A69A968D9
:100B6000C3F84415C3F8482501229A606A68DAB9C7
:100B7000D3F82021D3F858011AB90028F8D00F2053
:100B800007E00028FBD10122DA60D3F85821002ABF
:100B9000FBD0242303FB097700237B61BDE8F087AA
:100BA0001020FBE71120F9E72046F7E75800002066
:100BB000F8B501F06043B3F1005F04460F465ED123
:100BC0000379304D242101FB0351496821B10068AC
:100BD0004FF40476C0F80863242000FB03539E6999
:100BE00056B1D869002839D021B123684FF4047276
:100BF000C3F80423112030E09A61DF60DE612068D1
:100C00004FF48871FFF7FAFD20684FF4A271FFF7E7
:100C1000F5FD2368C3F83475C3F8382516BB0122E7
:100C20001A602479242202FB045252680ABBD3F8CA
:100C30001011D3F84421D3F82401114302D1002824
:100C4000F5D00A46242303FB04550023984218BF1D
:100C500003209A42AB6118BF0F20F8BD1F61DA6113
:100C60000126CCE7D3F8002242F02002C3F800228C
:100C7000D7E74FF40472C3F804230020EDE71020F7
:100C8000EBE700BF580000200378022B02D1406838
:100C9000FFF7E0BB012BFAD07047000030B51A4DCA
:100CA0008BB00120FFF7B7FB0FCD04AC0FC495E864
:100CB0000300164B164A00934FF4807384E8030038
:100CC000CDE902230193134A0723694604A8FFF7DD
:100CD00077FC08B1FFF7BEFB0F4800F039F9684612
:100CE000FFF7CCFC0028FAD19DF80000FFF7E4FCE8
:100CF0000028F9D19DF8003003F0DF03512BEED12D
:100D0000064800F025F9FEE7D40F00007C00002023
:100D10007C010020890C0000B00F0000C90F00000A
:100D20004FF08053D3F83001A0F1080358425841E6
:100D3000704700004FF08053D3F83021082A06D1C5
:100D4000D3F83431052B02D8024AD05C704700201A
:100D5000704700BFF20F0000024AD2F80034002BA7
:100D6000FBD0704700E0014010B5FFF7D9FF40B15C
:100D70004FF080430022C3F80C21C3F81021C3F8C0
:100D80003825FFF7CDFF002846D04FF08052654B45
:100D9000D2F80414C3F82015D2F80814C3F82415A7
:100DA000D2F80C14C3F82815D2F81014C3F82C1577
:100DB000D2F81414C3F83015D2F81814C3F8341547
:100DC000D2F81C14C3F84015D2F82014C3F8441507
:100DD000D2F82414C3F84815D2F82814C3F84C15D7
:100DE000D2F82C14C3F85015D2F83014C3F85415A7
:100DF000D2F83414C3F86015D2F83814C3F8641567
:100E0000D2F83C14C3F86815D2F84014C3F86C1536
:100E1000D2F84424C3F87025FFF78CFF18B1424B79
:100E2000424AC3F88C26FFF785FF18B1404BFB22DE
:100E3000C3F81825FFF77EFF70B14FF080414FF0E7
:100E40008053D1F8E42ED3F8583222F00F0203F089
:100E50000F031343C1F8E43EFFF76CFF20B1354B9D
:100E60004FF40072C3F84026FFF75AFF48B14FF025
:100E70008043D3F80024D20744BF6FF00102C3F8C7
:100E800000242D4AD2F8883043F47003C2F8883029
:100E9000BFF34F8FBFF36F8F4FF08053D3F83021E4
:100EA000082A0ED1D3F83431052B02D8234AD35C5B
:100EB0003BB14FF01023D3F808224FF08043C3F822
:100EC00058254FF01023D3F80022002A03DBD3F873
:100ED0000432002B22DA1A4901234FF01020C1F806
:100EE00004351224FFF738FFC0F80042FFF734FF43
:100EF000C0F80442FFF730FF0023C1F80435FFF7C4
:100F00002BFFBFF34F8F0C490E4BCA6802F4E0620F
:100F10001343CB60BFF34F8F00BFFDE70A4B0B4A73
:100F20001A6010BD00C0004000500040488103001E
:100F300000F000400090024000ED00E0EC0F0000E7
:100F400000E001400400FA050C0000200090D003EE
:100F500010B582B0441E00F015F803E0FFF7E2FB85
:100F6000431C08D014F8010F00210028F6D10146D7
:100F70000A20FFF7D7FB019000F006F8019802B0B5
:0C0F800010BD00BF704700BF704700BFED
:100F8C000D0E0F10FFFFFFFFFFFFFFFFFFFFFFFF27
:100F9C00FFFFFFFF00000000000000000000D60172
:100FAC00060000000D0A55415254206578616D70A1
:100FBC006C6520737461727465642E0D00200D0ACB
:100FCC0045786974210D000008000000060000003F
:100FDC0005000000070000000000000000E0D70141
:0C0FEC00000000000101010000000000F6
:100FF8000000000000200040000000000090D00326
:040000030000037581
:00000001FF
